:040000001EEF58F0A7
:08000800046ED8CF05F0E0CF33
:1000100006F00001E9CF0CF0EACF07F0E1CF08F0DD
:10002000E2CF09F0D9CF0AF0DACF0BF0F3CF12F01C
:10003000F4CF13F0FACF14F000C00EF001C00FF0AF
:1000400002C010F003C011F09DAA2AEF00F09EBA82
:10005000B2EF05F09DAC30EF00F09EBCA6EF03F0D0
:100060009DA036EF00F09EB0D5EF04F00EC000F07A
:100070000FC001F010C002F011C003F00CC0E9FF86
:1000800007C0EAFF078E08C0E1FF09C0E2FF0AC00F
:10009000D9FF0BC0DAFF12C0F3FF13C0F4FF14C086
:1000A000FAFF045006C0E0FF05C0D8FF1000F2CFF1
:1000B0000DF0F29EF76AC80FF66E000EF7220900E7
:1000C000F5500DBEF28E120005001E0032006400D5
:1000D000C8002C01F2CF0DF0F29EF76AEE0FF66E1B
:1000E000000EF7220900F5500DBEF28E1200010637
:1000F0000A14283CF2CF0DF0F29EF76A0E0FF66E4E
:10010000010EF7220900F5500DBEF28E12004D6F60
:10011000746F72204F46462044756520746F2055D9
:100120006E62616C616E6365642054726970000078
:10013000F2CF0DF0F29EF76A4A0FF66E010EF7222B
:100140000900F5500DBEF28E120054696D657220E3
:1001500048414C5445440000F2CF0DF0F29EF76A3E
:10016000720FF66E010EF7220900F5500DBEF28EE9
:10017000120054696D6572732072657065617469EF
:100180006E672066726F6D20736C6F742031000093
:10019000F2CF0DF0F29EF76AAA0FF66E010EF7226B
:1001A0000900F5500DBEF28E1200416C6C2074698E
:1001B0006D65727320646F6E652E2053776974636A
:1001C00068656420746F204D414E55414C00F2CF5C
:1001D0000DF0F29EF76AE80FF66E010EF7220900A5
:1001E000F5500DBEF28E120054696D657220726575
:1001F00073756D656420616674657220706F7765D4
:100200007220726573746F726500F2CF0DF0F29E0A
:10021000F76A240FF66E020EF7220900F5500DBEA4
:10022000F28E12004472792052756E204D6F746FF9
:1002300072204F464600F2CF0DF0F29EF76A500F43
:10024000F66E020EF7220900F5500DBEF28E120076
:100250004D6F746F72204F4E20616674657220443A
:1002600072792052756E2052657374617274000049
:10027000F2CF0DF0F29EF76A8A0FF66E020EF722A9
:100280000900F5500DBEF28E120054696D657220A2
:10029000526573756D656400F2CF0DF0F29EF76ADA
:1002A000B20FF66E020EF7220900F5500DBEF28E67
:1002B00012004D6F746F72204F46462044756520C2
:1002C000746F204869676820566F6C7461676500B9
:1002D000F2CF0DF0F29EF76AEA0FF66E020EF722E9
:1002E0000900F5500DBEF28E12004D6F746F722032
:1002F0004F46462044756520746F204C6F7720561A
:100300006F6C746167650000F2CF0DF0F29EF76AC2
:10031000220FF66E030EF7220900F5500DBEF28E85
:1003200012004D6F746F72204F4646204475652051
:10033000746F204F7665726C6F616400F2CF0DF0C0
:10034000F29EF76A560FF66E030EF7220900F5507B
:100350000DBEF28E12004D6F746F72204F46463AFA
:10036000205068617365204C6F7373204465746519
:10037000637465640000F2CF0DF0F29EF76A900F8F
:10038000F66E030EF7220900F5500DBEF28E120034
:100390004D6F746F72204F46463A20506861736506
:1003A000206368616E67656420335020746F20326B
:1003B0005000F2CF0DF0F29EF76ACC0FF66E030EEE
:1003C000F7220900F5500DBEF28E120052657065DD
:1003D0006174657220454E41424C45440000F2CFA5
:1003E0000DF0F29EF76AF80FF66E030EF722090081
:1003F000F5500DBEF28E12004175746F205374617A
:100400007274206F6E6C7920616C6C6F77656420FC
:10041000696E204D414E55414C206D6F6465000062
:10042000F2CF0DF0F29EF76A3A0FF66E040EF72245
:100430000900F5500DBEF28E12004175746F205305
:100440007461727420454E41424C45440000F2CF25
:100450000DF0F29EF76A680FF66E040EF72209009F
:10046000F5500DBEF28E12004175746F2053746109
:1004700072742044495341424C454400F2CF0DF080
:10048000F29EF76A960FF66E040EF7220900F550F9
:100490000DBEF28E12005265706561746572204463
:1004A000495341424C454400F2CF0DF0F29EF76AA9
:1004B000C20FF66E040EF7220900F5500DBEF28E43
:1004C00012004D6F746F72204F46462C2054696D98
:1004D00065722048414C54454400F2CF0DF0F29E25
:1004E000F76AF40FF66E040EF7220900F5500DBE00
:1004F000F28E12004D4F544F52204F4646205377F4
:100500006974636865642046524F4D2054494D45D7
:100510005220544F204D414E55414C204D4F4445A3
:100520000000F2CF0DF0F29EF76A3C0FF66E050E5A
:10053000F7220900F5500DBEF28E12005377697450
:100540006368656420746F2054494D4552206D6F77
:1005500064652E2054696D657273207374617274C2
:10056000696E672E0000F2CF0DF0F29EF76A800FE1
:10057000F66E050EF7220900F5500DBEF28E120040
:10058000537769746368656420746F2054494D45DE
:1005900052206D6F64652E204E6F2074696D6572F8
:1005A0007320636F6E666967757265642100F2CFB0
:1005B0000DF0F29EF76AC80FF66E050EF7220900DD
:1005C000F5500DBEF28E12005068617365207365A0
:1005D0007420746F20325000F2CF0DF0F29EF76A53
:1005E000F20FF66E050EF7220900F5500DBEF28EE1
:1005F000120050686173652073657420746F203336
:100600005000F2CF0DF0F29EF76A1C0FF66E060E48
:10061000F7220900F5500DBEF28E1200496E766188
:100620006C696420736C6F74206E756D62657220E6
:1006300028312D352900F2CF0DF0F29EF76A500FC8
:10064000F66E060EF7220900F5500DBEF28E12006E
:100650004175746F2053746172743A204D6F746FDA
:1006600072204F4E20616674657220706F776572DC
:1006700020726573746F72650000F2CF0DF0F29E08
:10068000F76A940FF66E060EF7220900F5500DBEBC
:10069000F28E12004D4F544F52204F4E20284D6184
:1006A0006E75616C2900F2CF0DF0F29EF76AC00FF3
:1006B000F66E060EF7220900F5500DBEF28E1200FE
:1006C0004D4F544F52204F464620284D616E756164
:1006D0006C2900000A011751070B006E1731016EDB
:1006E000013201321F0E011601501825E96E000E6D
:1006F0001921EA6EEFCF01F0002A01D00132002E5D
:10070000FDD7000133EF04F00A011751070B006E0B
:100710001731016E013201321F0E011601501925E9
:10072000E96E000E1A21EA6E016A012A002A01D040
:100730000136002EFDD7185303E00150EF1203D00D
:10074000011E0150EF16000140EF04F0C2B2FED7C7
:10075000C4CF16FA0A01C3CF15FA04016551020885
:100760002AE3D8906535036A460FE96E040E03202C
:10077000EA6EECCF03F0ED52EFCF01F003500A0127
:10078000165DD8B002D0040116D006E11551015C07
:10079000D8A002D004010FD0D89004016535036AB7
:1007A000460FE96E040E0320EA6E16CAECFFED5206
:1007B00015CAEFFF2CD06551020829E2D8906535A3
:1007C000036A460FE96E040E0320EA6EECCF03F0D5
:1007D000ED52EFCF01F00A011651035CD8B002D000
:1007E000040115D006E10150155DD8A002D0040126
:1007F0000ED0D89004016535036A460FE96E040EE9
:100800000320EA6E16CAECFFED5215CAEFFF6551E0
:10081000020844E3D8906535036A730FE96E040E4D
:100820000320EA6EECCF18FAED52EFCF17FA0A0167
:10083000185306E117518C08D8A002D004012ED01D
:100840001653D8B402D0040129D015518C08D8B061
:1008500002D0040123D065C417FA040E196F790E73
:10086000186F000137D701B01AD065C417FA010E0E
:100870000A01186F040E1A6F790E196F000144D720
:1008800004017D5102080AE37D517D2B036A7A0F32
:10089000E96E040E0320EA6E65C4EFFF0001040157
:1008A000655102080DE3D8906535036A730FE96E50
:1008B000040E0320EA6E16CAECFFED5215CAEFFFD4
:1008C000665318E16551000A000105E0010A08E0DD
:1008D000030A0BE00DD0010E0401656F000108D082
:1008E000020E0401656F000103D00401656B000175
:1008F0001FD004016551FA0F1CE2060F0001B1EF91
:1009000004F0010E0401656F14D0020E0401656F3E
:1009100010D0030E0401656F0CD0040E0401656F46
:1009200008D0050E0401656F04D00401656B01D089
:1009300004016551050807E1380E016EC250830BB2
:100940000110C26E09D06535006E0036FC0E00162F
:10095000C250830B0010C26EC2829E9C000136EF13
:1009600000F0E824F76AF7367D0FF66E090EF722DD
:100970000A00F550FA6E0800F550F96E02090A09EE
:1009800012091A0922092A090A0115511703F3CF7E
:1009900001F0F4CF00F01803F350002616511703AE
:1009A000F3500020026E000112000401452B0501E6
:1009B000935304E1945302E1955318E0912B915124
:1009C000130814E2916B955302E095070FD03B0E8C
:1009D000956F945302E0940709D03B0E946F9353A4
:1009E00002E0930703D0836B846B856B922B92514B
:1009F000130805E2926B6A513A0801E36A2B04017D
:100A0000895302E18A5303E0892BD8B48A2B8B5394
:100A100014E1832D12D0845310E103010153D8B4A3
:100A200002D004010AD005018F53D8B402D00401CA
:100A300004D004018C2BD8B48D2B8E5302E18F533C
:100A400003E08E2BD8B48F2B0301012D25D0050197
:100A50009CB102D0030120D0982B985113081DE2BD
:100A6000986B995308E19A5306E19B5304E1030103
:100A7000028F11D005019B5302E09B070BD03B0E68
:100A80009B6F9A5302E09A0705D03B0E9A6F9953D9
:100A900001E0990703011C88050104014551310853
:100AA00004E2010E646F456BBA6F80C416FA7FC40E
:100AB00015FA0A01186B140E176F000165DF02505A
:100AC000036E04018A5D06E303E18951015C02E2E1
:100AD000010E886F8D5103081DE2FF0A03E18C515E
:100AE000AF0818E28B5316E1832D14D0845312E122
:100AF00003010153D8B402D004010CD005018F5377
:100B0000D8B402D0040106D0010E0401856F8B6FAA
:100B10008D6B8C6B8EC516FA8DC515FA0A01186B94
:100B2000140E176F000130DF0250036E04018F5D59
:100B300005E303E18E51015C01E2886B850ECF6E07
:100B4000EE0ECE6E9E90000136EF00F09EAAFED70C
:100B5000ABCF1DF0AECF01F01DA202D0AB98AB8899
:100B6000B8EF05F002018853D8B44BD00001EED79E
:100B700001C015FA0A01155123080CE015513F0870
:100B800009E01551240806E01551400803E015510D
:100B9000250812E10201C56B010E0501A26F0201D9
:100BA000C551C52B036A890FE96E020E0320EA6E58
:100BB00015CAEFFF26D00A010501A25323E00A015E
:100BC00015510D0803E015510A080DE1036A0201F1
:100BD000C551890FE96E020E0320EA6EEF6A1C848C
:100BE0000501A26B0FD00201C5513A080AE3C551B5
:100BF000C52B036A890FE96E020E0320EA6E15CA3F
:100C0000EFFF05019E9A000136EF00F04D6F64651D
:100C10003A2054494D45520D0A004D6F64653A2003
:100C20004D414E55414C0D0A0000566F6C74616782
:100C30006520523A20256C7520562C20593A2025E3
:100C40006C7520562C20423A20256C7520560D0AD2
:100C5000000043757272656E7420523A20256C75DF
:100C60002E256C7520412C20593A20256C752E2597
:100C70006C7520412C20423A20256C752E256C7510
:100C80002041000041542B434D47533D222B393125
:100C90002573220D00004E554D20534156454420EA
:100CA000534C4F542025640072783A257300736EBC
:100CB000643A257320736C3A25640000496E7661AE
:100CC0006C696420736C6F74212055736520322D1C
:100CD00035206F6E6C790000536C6F742025642092
:100CE000456E61626C656400536C6F7420256420EE
:100CF00044697361626C6564000041542B434D4745
:100D0000533D222B39312573220D00004E756D2580
:100D1000643A2025730D0A00312E50484153452076
:100D200053455454494E4700322E4A5549434520B5
:100D3000434F4E54524F4C00332E504F5745522084
:100D40004F4E2044454C41590000342E5345542009
:100D50004F4E2054494D4500352E535441522044A6
:100D6000454C544120444C590000362E564F4C54AB
:100D70002053455454494E470000372E44525920C1
:100D800052554E2044454C415900382E4452595238
:100D9000554E20524553544152540000392E44526E
:100DA0005952554E20545249500031302E4D414E2B
:100DB00055414C2F54494D45520031312E43594332
:100DC0004C49432054494D45520031322E52455032
:100DD0004541542054494D45520031332E4155541C
:100DE0004F2053544152540031342E554E42414C01
:100DF000414E434544205452500031352E43542037
:100E000054595045000031362E47534D2053455418
:100E100054494E47000031372E5049205445535411
:100E2000000031382E4558495420544F204D414937
:100E30004E00507265737320746F204558495400FA
:100E4000507265737320746F20454E5445520000F4
:100E500045584954494E47204D454E552E2E2E009B
:100E6000312E50484153452053455454494E470074
:100E70003E3E203220504841534520202020202053
:100E8000202000003E3E2033205048415345202082
:100E900020202020202000003E3E203220504841CB
:100EA0005345202020202020202000003E3E2033DB
:100EB00020504841534520202020202020200000A1
:100EC0005048415345205341564544003220504834
:100ED00041534500332050484153450050726573DB
:100EE0007320454E544552202020202000004E6F94
:100EF000204368616E676500507265737320454ECC
:100F0000544552002573204E524D00002573204653
:100F10005354000025732053554600003E3E2025C3
:100F20006C640000322E4A5549434520434F4E54CD
:100F3000524F4C003E3E20454E41424C4520202021
:100F40002020202020003E3E2044495341424C4571
:100F500020202020202020003E3E20454E41424CB3
:100F6000452020202020202020003E3E20444953C0
:100F700041424C4520202020202020004A55494352
:100F800045204354524C205341564544000053548D
:100F9000415455533A20454E41424C4520200000D3
:100FA0005354415455533A2044495341424C4520EF
:100FB0000000507265737320454E54455220202026
:100FC00020200000332E50575220444C59204E4FC1
:100FD000524D0000332E50575220444C5920464168
:100FE00053540000332E50575220444C592053552F
:100FF00046410000202020256C642073656320207A
:10100000200044454C41592053415645442100009D
:10101000202020256C6420736563202020005072FE
:1010200065737320454E5445522020202020000037
:101030004E6F204368616E67650050726573732060
:10104000454E54455200352E535441522044454C90
:1010500054204E524D00352E535441522044454C9D
:10106000542046535400202020256C64207365636F
:10107000202020002044454C4159205341564544EE
:1010800021200000202020256C642073656320202F
:101090002000507265737320454E54455220202025
:1010A000202000004E6F204368616E67650050721B
:1010B00065737320454E54455200362E564F4C549E
:1010C0002053455454494E47202000004C4F572090
:1010D000564F4C54205345542020202000004C569D
:1010E000205341564544202020202020202000006D
:1010F000256C753A256C753A256C752020202020CA
:1011000020004849474820564F4C5420534554200E
:1011100020200000485620534156454420202020DE
:10112000202020200000256C753A256C753A256C2E
:1011300075202020202020004F5645524C4F41441E
:10114000205345542020202000004F4C205341566E
:10115000454420202020202020200000256C753AC6
:10116000256C753A256C7520202020202000564FD4
:101170004C54204D454E5520444F4E4520200000F4
:10118000476F696E6720746F206E6578742E2E2EFF
:101190000000372E44525952554E20444C59204E8F
:1011A0004F524D00372E44525952554E20444C59FF
:1011B000204641535400372E44525952554E204434
:1011C0004C59205355464100202020256C64207343
:1011D0006563202020002044454C4159205341564E
:1011E00045442100202020256C6420736563202065
:1011F0002000507265737320454E544552202020C4
:10120000202000004E6F204368616E6765005072B9
:1012100065737320454E54455200382E445259523E
:10122000554E20525354204E4F524D00382E4452AA
:101230005952554E20525354204641535400382E93
:1012400044525952554E2052535420535546410052
:10125000202020256C64207365632020200020441A
:10126000454C41592053415645442120202000003F
:10127000202020256C64207365632020200050729C
:1012800065737320454E54455220202020200000D5
:101290004E6F204368616E676500507265737320FE
:1012A000454E54455200392E44525952554E205401
:1012B0005250204E524D0000392E44525952554E34
:1012C00020545250204653540000202020256C64A6
:1012D00020416D707320202000002056414C554560
:1012E0002053415645442120200020256C64204194
:1012F0006D70732020200000507265737320454E7E
:10130000544552202020202000004E6F2043686169
:101310006E676500507265737320454E54455200E8
:10132000342E534554204F4E2054494D45204E52A3
:101330004D00342E534554204F4E2054494D4520E6
:1013400046535400202020256C64207365632020C0
:1013500020002054494D452053415645442120202A
:101360002000202020256C6420736563202020004D
:10137000507265737320454E544552202020202022
:1013800000004E6F204368616E67650050726573A0
:101390007320454E5445520031302E4D414E55413B
:1013A0004C2F54494D4552003E3E204D414E554133
:1013B0004C2020202020202020003E3E2054494D5B
:1013C0004552202020202020202020003E3E204D7D
:1013D000414E55414C2020202020202020003E3E20
:1013E0002054494D4552202020202020202020003C
:1013F0004D4F444520534156454421004D4F4445EF
:101400003A204D414E55414C2020202000004D4FA8
:1014100044453A2054494D455220202020200000C8
:1014200031302E4359434C49432054494D455200D5
:101430004359434C49432054494D455220256400AB
:10144000507265737320746F20454E5445520000EE
:101450004F4E203A00004F46463A00004F4E2020A3
:1014600054494D455220256420204F4646002530E2
:1014700032753A2530327520202020202025303248
:10148000753A253032750000392E4155544F20539E
:101490005441525400003E3E20454E41424C4520AE
:1014A000202020202020202000003E3E20444953C0
:1014B00041424C45202020202020202000003E3E9C
:1014C00020454E41424C4520202020202020202035
:1014D00000003E3E2044495341424C4520202020FC
:1014E0002020202000004D4F4445205341564544C4
:1014F00021005354415455533A20454E41424C45E6
:10150000202000005354415455533A20444953413C
:10151000424C45200000507265737320454E54457F
:1015200052202020202000004E6F204368616E670B
:101530006500507265737320454E54455200313238
:101540002E554E42414C414E43454420545250008A
:101550004C696D69743A2025334C752525004C493A
:101560004D49542053415645442100004C696D6952
:10157000743A2025334C752525005072657373200D
:10158000454E544552202020202000004E6F20431D
:1015900068616E676500507265737320454E5445EF
:1015A000520031332E53454C45435420435420546C
:1015B000595045003E2025336C7541202825327551
:1015C0003A312920200043542053415645442100FC
:1015D00043543A20256C7541202825753A3129005D
:1015E000507265737320454E5445522020202020B0
:1015F00000004E6F204368616E676500507265732E
:101600007320454E5445520031352E5049205445E3
:1016100053542D495240316D0000203A2025332E7D
:101620003166204D4F686D20202000004952403126
:101630006D20534156454421000056616C75653A52
:101640002025332E3166204D4F686D005072657332
:101650007320454E54455220202020200000456E26
:101660007465722049524031306D696E202000004F
:10167000203A2025332E3166204D4F686D202020E2
:10168000000050492056414C554553205341564582
:1016900044210000316D3A25332E31662031306D02
:1016A0003A25332E31660000507265737320454E23
:1016B0005445522020202020000050493D25332E43
:1016C000326620524553554C54200000474F4F443A
:1016D00020494E53554C4154494F4E200000504F25
:1016E0004F5220494E53554C4154494F4E20000013
:1016F00042414420494E53554C4154494F4E2020BD
:10170000000047534D20494E49542E2E2E00506C58
:101710006561736520776169740041540D0041541F
:101720000D0041542B434D47463D310D00004154BF
:101730002B434E4D493D322C322C302C302C300D69
:10174000000041542B434D47443D312C340D0000E3
:1017500047534D2052454144590031322E52455095
:101760004541542054494D4552003E3E20454E418E
:10177000424C452020202020202020003E3E2044B6
:10178000495341424C4520202020202020003E3E4D
:1017900020454E41424C4520202020202020200082
:1017A0003E3E2044495341424C45202020202020E9
:1017B0002000524550454154205341564544210094
:1017C0005354415455533A20454E41424C452020F4
:1017D00000005354415455533A2044495341424C1C
:1017E0004520000031342E47534D20534554544971
:1017F0004E4700003E3E20454E41424C45202020B1
:101800002020202020003E3E2044495341424C45A8
:1018100020202020202020003E3E20454E41424CEA
:10182000452020202020202020003E3E20444953F7
:1018300041424C45202020202020200047534D20AD
:101840005341564544005354415455533A20454E54
:1018500041424C45202000005354415455533A20F6
:1018600044495341424C4520000047534D20454ECA
:1018700041424C4544005245535441525420444542
:1018800056494345000047534D2044495341424C7B
:101890004544000054494D4552532052455045415E
:1018A00054212020000052657374617274696E6760
:1018B0002E2E2E2020200000414C4C2054494D4516
:1018C000525320444F4E452100005377697463689A
:1018D00065643A4D414E55414C2000004E4557201D
:1018E00051424954524F4E494353000044494749DD
:1018F00054414C20535441525445520044494749A5
:1019000054414C2053544152544552005365712E5A
:1019100020436865636B696E672E2E2E000033507E
:10192000204D4F44453A2057414954494E47000005
:10193000464F5220414C4C20332050484153455390
:1019400000003320504841534553204F4B0053650E
:10195000712E20436865636B696E672E2E2E000022
:10196000504F574552204F4E20444C592E2E2E009A
:10197000202020256C6420736563202020004452C1
:10198000592052554E20545249502100413A253297
:101990002E306620543A256C75004452592052531B
:1019A0005420444F4E4521005475726E696E672075
:1019B0004F4E2E2E2E005048415345204C4F53532E
:1019C00021004D6F746F72204F4646210000504831
:1019D0004153453A203350202D3E203250004D6F68
:1019E000746F72204F46462100004F4E20004F4634
:1019F00046004F4E20004F46460054696D657220E8
:101A000025640000253032643A253032643A2530AE
:101A10003264202020004F4E200054696D657220F2
:101A200025640000253032643A253032643A25308E
:101A30003264202020004F464600496E76616C6972
:101A40006420666F726D61743A20236E3C736C6F14
:101A5000743E3C31306469676974206E756D6265EF
:101A6000723E00004572726F723A204E65656420C6
:101A70003130206469676974732C20676F74202586
:101A800064004E756D6265722073617665642074C2
:101A90006F20736C6F7420256400454E5445524985
:101AA0004E47204D454E552E2E2E0000090EEA6E53
:101AB0008D0EE96EEF500DE0060E016E006A002EED
:101AC000FED7012EFBD77B0E006E002EFED7EF2E29
:101AD000F3D7120094988B9893908A90080E09017E
:101AE000956F955319E09451951503E094968B8664
:101AF00002D094968B96100E006E002EFED700003A
:101B000094988B88100E006E002EFED700009498DB
:101B10008B98D8909533E5D71CA003D094968B86EC
:101B200002D094968B96956B9551010810E3100E98
:101B3000006E002EFED7000094988B88100E006E69
:101B4000002EFED7000094988B98952BEDD793909C
:101B50008A80020E006E002EFED700D00000939007
:101B60008A90000112001C9009018C398D6F0F0EB4
:101B70008D178DC994F90001ADDF09018C510F0B50
:101B80008D6F946F0001A6DF09018C510C081BE0DA
:101B90008C2D01D018D08C510E0815E08C510F08F7
:101BA00012E08C5110080FE08C511E080CE08C5193
:101BB000180809E08C51080806E08C51140803E06D
:101BC0008C51020805E1320E8D6F00016FDF0901B3
:101BD000000112001C9094968B9694988B98939089
:101BE0008A90949694989390280E09018D6F000125
:101BF0005DDF030E09018C6F0001B5DF050E0901E1
:101C00008D6F000153DF030E09018C6F0001ABDF04
:101C1000050E09018D6F000149DF030E09018C6F6C
:101C20000001A1DF050E09018D6F00013FDF020EEB
:101C300009018C6F000197DF050E09018D6F00010E
:101C400035DF280E09018C6F00018DDF320E09018E
:101C50008D6F00012BDF0C0E09018C6F000183DFFB
:101C6000320E09018D6F000121DF060E09018C6F14
:101C7000000179DF320E09018D6F000117DF0C0EB4
:101C800009018C6F00016FDF320E09018D6F0001B9
:101C90000DDF12008E0E006E24C901F023C902F080
:101CA000036A015209E102C001F0026A080E005EF7
:101CB000015202E1006A08D0D89001BE04D0023679
:101CC00001360006F9D7019E120009012751D8B448
:101CD000A5D0336F2B51D8B4A1D0335F05E37F0E6D
:101CE0003327D8B09BD006D0810E335FD8A096D0D2
:101CF000D8B494D033C900F0016A026A036A326B27
:101D000028C931F9318F29C930F92AC92FF9190E9B
:101D1000336F2E512F5F0DE2010E305F0AE2315F0B
:101D200008E2325F06E2322B312B302B2E512F2767
:101D300028D02D51305F12E2010E315F0FE2325F89
:101D40000DE2322B312B2D5130272E512F2719E345
:101D5000302B17E1312B15E1322B13D02C51800998
:101D6000315F0EE2010E325F0BE2322B2C51800903
:101D700031272D513027E9E3312BE7E1322BE5D72D
:101D80000380332F01D00BD0D8902F373037313725
:101D90003237D8900336023601363437BAD734A1F9
:101DA00006D0D890013202320332343302D000061A
:101DB00035E034BF1ED0D8902F3730373137323727
:101DC0002E512F5F07E2010E305F04E2315F02E225
:101DD000325F1AE32D51305F05E2010E315F02E2FE
:101DE000325F12E32C518009315F03E2010E325F52
:101DF0000BE3032A09E1022A07E1012A05E1002A8F
:101E00000DE001320232033228C933F92C51331B61
:101E100033AF02D0018E06D0019E04D0006A016A61
:101E2000026A036A0001120024C92BF90901285132
:101E30002B1B2BAF05D0D894D89024BFD8802FD09F
:101E400024C92BF927C92CF923512C5F06E02BAFAD
:101E500026D0D850010AD86E22D028C92CF9245196
:101E60002C5F06E02BAF1BD0D850010AD86E17D0DC
:101E700029C92CF925512C5F06E02BAF10D0D85082
:101E8000010AD86E0CD02AC92CF926512C5F06E025
:101E90002BAF05D0D850010AD86E01D0D8900001E0
:101EA0001200F250006EF29EAA6A9C0EA96EA86AF9
:101EB000A69CA69EA6840F01550EA76EAA0EA76E1D
:101EC000A682A6B2FED7A6940050F2120201C669FD
:101ED00000011200F2CFE5F8F29EAA6A9C0EA96EEC
:101EE000A69CA69EA680A8500801E5BFF28EE46FCE
:101EF000E451AA08D8A46FD00301012D01D003D06A
:101F0000080169D00301F2CFE5F8F29EAA6A970EA4
:101F1000A96EA69CA69EA680A8500801E5BFF28ED9
:101F20000501996FF2CFE5F8F29EAA6A980EA96EA4
:101F3000A69CA69EA680A8500801E5BFF28E0501CA
:101F40009A6F9B6BF2CFE5F8F29EAA6A9A0EA96E81
:101F5000A69CA69EA680A8500801E5BFF28E0501AA
:101F6000976FF2CFE5F8F29EAA6A9B0EA96EA69C27
:101F7000A69EA680A8500801E5BFF28E0501966FC7
:101F80009951170801E2996B9A513B0801E29A6B4B
:101F90009651040801E2966B995307E19A5305E1C3
:101FA00000017FDF080117D005010301029F050131
:101FB0009C911C8A060E0801E56FFA0E09018D6FCF
:101FC000000174DD0801E52FF8D7010E09018C6FBF
:101FD0000001C9DD08010001A6EF61F0F2CFE7F8CA
:101FE000F29EAA6A940EA96EA69CA69EA680A850F0
:101FF0000801E7BFF28EE46F010E0101CA6F020E05
:102000000801E56FE551050822E3036AE551C90FB0
:10201000E96E010E0320EA6E010EE55D016EE4C873
:1020200000F0015204E0D8900032012EFCD700509D
:10203000010BEF6EE43D09D0036AE551C90FE96E6B
:10204000010E0320EA6E010EEF6EE52BDBD7E43DB7
:1020500019D01E0EE66FF250006EF29EAA6A940E20
:10206000A96EE6C8A8FFA69CA69EA6840F01550EE1
:10207000A76EAA0EA76EA682A6B2FED7A69400509F
:10208000F21208010001B7EF62F0010E09018A5D4A
:10209000FC0F2DE2040F000179EF10F0800E090112
:1020A0008925FF0F8B6F8C6F00015DDD09011FD04B
:1020B000C00E09018925FF0F8B6F8C6F000153DD66
:1020C000090115D0940E09018925FF0F8B6F8C6FC4
:1020D000000149DD09010BD0D40E09018925FF0F4C
:1020E0008B6F8C6F00013FDD090101D009010001F8
:1020F0001200F2CF0DF0F29EE824F76AF736170FC0
:10210000F66E210EF7220A00F550FA6E0800F5501F
:102110000DBEF28EF96E9C20B020C420D8201C8009
:1021200009019239936F0F0E931793C994F9000127
:10213000D1DC100E006E002EFED700000901925176
:102140000F0B936F946F0001C5DC12000900F5526C
:102150000CE0F6CF7BF9F7CF7CF9F5CF92F9DFDF12
:102160007BC9F6FF7CC9F7FFF1D712000901FA51CC
:10217000D8B484D0006EFE51D8B480D0002605E3D8
:10218000810E0026D8B07AD005D07F0E005ED8A090
:1021900075D074E0FBC902FAFF510A01021B090164
:1021A000FB8FFF8FFD510A010103F4CF04FA0901EF
:1021B000FC510A010003F4CF03F0F3CF03FA01034B
:1021C000F3500427F4500323000E03220901FD51AC
:1021D0000A010003F3500427F4500323000E026A9F
:1021E000032202220901FB510A010103F3500327D4
:1021F000F4500322000E02220901FB510A010003E0
:10220000F3500326F4500222000E016A0122090154
:10221000FD51FF03F3500A010327F4500322000E7F
:10222000022201220901FC51FF03F3500326F4505E
:102230000222000E0122FB51FF03F3500226F4504C
:102240000122002A01BE06D00A01033703360236F6
:1022500001360006000E0A0103AF0AD0032A02224B
:102260000122015005E1025003E1035001E1002A7F
:1022700002BF018E02AF019E06D00901006A016A09
:10228000026A036A0A01000112008E0E006E090143
:10229000FA51005EFBC902F0FCC901F0028E005247
:1022A00009E0D890025202E1015204E00232013208
:1022B000002EF7D7FBAF05D0011E021E012AD8B4AD
:1022C000022A000112000401535306E15251310861
:1022D00003E3036A000E03D053C403F05251A46F0A
:1022E00003C0A5F4555306E15451310803E3036AD2
:1022F000000E03D055C403F05451A66F03C0A7F4D9
:10230000575306E15651310803E3036A000E03D028
:1023100057C403F05651A86F03C0A9F463C49BF4DB
:1023200062C49AF461C499F460C498F45FC49FF4E1
:102330005EC49EF45DC49DF45CC49CF45BC4A3F4D1
:102340005AC4A2F459C4A1F458C4A0F4A5C4ABF46F
:10235000A4C4AAF4A7C4ADF4A6C4ACF4A9C4AFF451
:10236000A8C4AEF45BC4FDF95AC4FCF959C4FBF926
:1023700058C4FAF9000189DF02C0DEF201C0DDF2C3
:102380005FC4FDF95EC4FCF95DC4FBF95CC4FAF9F5
:102390007CDF02C0E0F201C0DFF263C4FDF962C479
:1023A000FCF961C4FBF960C4FAF96FDF02C0E2F224
:1023B00001C0E1F207EF13F004016453D8B42BD14C
:1023C000646B0801E46BE4510208D8A081D0D89076
:1023D000E435036A460FE96E040E0320EA6EECCF83
:1023E000EEF8ED52EFCFEDF8EEC824F9EDC823F981
:1023F000000150DC03C0FDF902C0FCF901C0FBF98B
:1024000000C0FAF9290E0A01016F5C0E006F1F0E61
:102410000901FF6F810EFE6F0001A8DE03C0F0F816
:1024200002C0EFF801C0EEF800C0EDF803C02AF9D1
:1024300002C029F901C028F900C027F909012E6B53
:10244000C00E2D6F7F0E2C6F880E2B6F00013DDCB0
:1024500003C0E8F802C0E7F801C0E6F800C0E5F8FC
:10246000D8900801E435036A520FE96E040E032088
:10247000EA6EE8C8FDF9E7C8FCF9E6C8FBF9E5C86B
:10248000FAF9330E0A01016F006F430E0901FF6F65
:10249000870EFE6F00016ADE03C0FDF902C0FCF981
:1024A00001C0FBF900C0FAF9F0DE02C0ECFFED520A
:1024B00001C0EFFFD8900801E435036A460FE96ECA
:1024C000040E0320EA6EEC6AED52EF6AE42B7BD730
:1024D000030EE46FE4510508D8A097D0D890E435F6
:1024E000036A460FE96E040E0320EA6EECCFEEF8A5
:1024F000ED52EFCFEDF8EEC824F9EDC823F9000155
:102500004AEC0EF003C0FDF902C0FCF901C0FBF972
:1025100000C0FAF90A01016B006B200E0901FF6F80
:10252000810EFE6F000122DE03C0F0F802C0EFF85A
:1025300001C0EEF800C0EDF803C02AF902C029F985
:1025400001C028F900C027F909012E6BC00E2D6FBC
:102550007F0E2C6F880E2B6F000165EC0EF003C010
:10256000ECF802C0EBF801C0EAF800C0E9F8030E8D
:102570000801E45D040DF350036A580FE96E040E80
:102580000320EA6EECC82AF9EBC829F9EAC828F951
:10259000E9C827F9EEC22EF9EDC22DF9ECC22CF9EB
:1025A000EBC22BF9000165EC0EF003C0F2F802C09B
:1025B000F1F801C0F0F800C0EFF803C0FDF902C067
:1025C000FCF901C0FBF900C0FAF9F2C201FAF1C24C
:1025D00000FAF0C2FFF9EFC2FEF9C8DD00C0EFFF5C
:1025E00001C0ECFF02C0ECFF03C0ECFFD890080173
:1025F000E435036A460FE96E040E0320EA6E030E0B
:10260000EC6EED52EF68E42B65D700015CD6000E4E
:10261000016E04D00401010E016E000112000401DC
:1026200042534EE0A55105015F5D1BE307E15E519A
:102630000401A45DD8A002D0050113D00401A75164
:102640000501615D0EE308E160510401A65DD8A0BB
:1026500002D0050106D00501010E0401876F2FD0BD
:10266000050159510401A55D08E315E1A4510501D7
:10267000585DD8B002D004010ED005015B510401B1
:10268000A75D0CE308E1A65105015A5DD8A002D070
:10269000040104D00401020E876F11D0872D01D0F0
:1026A00003D0875102080AE18B2D08D0832D06D074
:1026B000845304E18B6B8D6B8C6B856B876B4DD07A
:1026C000A55105015F5D08E315E15E510401A45DBC
:1026D000D8B002D005010ED00401A7510501615DFB
:1026E0000EE308E160510401A65DD8A002D0050107
:1026F00006D00501010E0401876F2FD00501595145
:102700000401A55D08E315E1A4510501585DD8B0A9
:1027100002D004010ED005015B510401A75D0CE35A
:1027200008E1A65105015A5DD8A002D0040104D0E9
:102730000401020E876F11D0872D01D003D087517D
:1027400002080AE18B2D08D0832D06D0845304E1C2
:102750008B6B8D6B8C6B856B876B0001120004019A
:10276000A55306E1A451310803E3000E016E12D017
:10277000A75306E1A651310803E3000E016E0AD00B
:10278000A95306E1A851310803E3000E016E02D0FF
:10279000010E016E0001B5EF63F0040179917993A8
:1027A00079957D6B000146EF64F00900F5520DE06C
:1027B000F6CFE4F8F7CFE5F8F5509EA8FED7AD6E5A
:1027C000E4C8F6FFE5C8F7FFF0D71200010E0901D3
:1027D0008C6F0001B3EC0DF0010E0901896F8A6F57
:1027E000000153DC020EF66E170EF76EAFDC010E21
:1027F0000901896F020E8A6F000147DC0E0EF66E2A
:10280000170EF76EA3DC0C0E0801E46FFA0E090137
:102810008D6F000156EC0DF00801E42FF7D70C0E78
:10282000E46FFA0E09018D6F000156EC0DF00801FE
:10283000E42FF7D70C0EE46FFA0E09018D6F00013B
:1028400056EC0DF00801E42FF7D70C0EE46FFA0EEA
:1028500009018D6F000156EC0DF00801E42FF7D748
:102860000C0EE46FFA0E09018D6F000156EC0DF0AD
:102870000801E42FF7D71A0EF66E170EF76E000157
:1028800094DF040E0801E46FFA0E09018D6F000158
:1028900056EC0DF00801E42FF7D71E0EF66E170E5A
:1028A000F76E000182DF040E0801E46FFA0E0901E1
:1028B0008D6F000156EC0DF00801E42FF7D7220EC2
:1028C000F66E170EF76E000170DF040E0801E46F5C
:1028D000FA0E09018D6F000156EC0DF00801E42F8E
:1028E000F7D72E0EF66E170EF76E00015EDF040EA0
:1028F0000801E46FFA0E09018D6F000156EC0DF02E
:102900000801E42FF7D7420EF66E170EF76E00019E
:102910004CDF0C0E0801E46FFA0E09018D6F000107
:1029200056EC0DF00801E42FF7D7010E09018C6F6A
:102930000001B3EC0DF0010E0901896F8A6F0001EF
:1029400045EC10F0500EF66E170EF76EA6EC10F078
:10295000060E0801E46FFA0E09018D6F000156ECB6
:102960000DF00801E42FF7D7010E09018C6F00016B
:10297000B3EC0DF080EF64F00900F6CF8AF9F7CFE1
:102980008BF9F5CF92F98FEC10F08AC9F6FF8BC95D
:10299000F7FF0901892F01D002D00001EDD7000116
:1029A0001200EACF91F9E9CF90F909018AAF08D076
:1029B000908F90A9902B891F8A1F892BD8B48A2BBE
:1029C0008A39F0098C6F8C27E20F8D6F320F8F6F71
:1029D0008A510F0B8D278D278F27E90F8E6F8E273A
:1029E0008E2789390F0B8E278F278E378F378F1FB2
:1029F0008F3789510F0B8F278C37070E8B6F0A0E7D
:102A00008E078F27FDE38D078E27FDE38C078D272B
:102A1000FDE38B078C27FDE3090EEA6E8B0EE96E52
:102A2000070E9015909DED52901507E190B9EE526A
:102A300090B903D0200E006E21D0E926000EEA22C4
:102A4000E9508F0804E1EA50090801E1908DEF5048
:102A5000006E08E190BD06D090B91ED090B702D0AC
:102A6000200E0BD090AF06D02D0E006EED50909D35
:102A7000909F04D090879099300E0026EACF8AF973
:102A8000E9CF89F900C092F900018FEC10F08AC9F2
:102A9000EAFF89C9E9FF0901EE5090ADD1D70001E5
:102AA00012000201F62D15D00401535303E15251D7
:102AB00031080AE2555303E15451310805E25753F6
:102AC00006E15651310803E3000E016E12D00FD01B
:102AD00002010401535303E15251310805E25553F9
:102AE00006E15451310803E3000E016E02D0010EDD
:102AF000016E000112008A8A8A98010E0401866F15
:102B000009012E6B0201CD5305E1CC5109012E5D67
:102B10000EE20201050E09012F6FC60E8D6F000136
:102B200056EC0DF009012F2FF8D72E2BEBD78A8802
:102B3000410E0401B66F0001120009017B2D03D084
:102B4000620E7E6F19D07B51020803E16C0E7E6F1E
:102B500013D07B51030803E1760E7E6F0DD07B51BD
:102B6000040803E1800E7E6F07D07B51050803E166
:102B70008A0E7E6F01D024D07F6B7F51090819E344
:102B8000036A7F517C25E96E7D510320EA6E7F51F7
:102B90007E25826FF2CF83F9F29EAA6A82C9A9FFCD
:102BA000A69CA69EA680A85083BFF28EEF6E7F2BB8
:102BB000E4D70A0E7C25E96E000E7D21EA6EEF6AED
:102BC000000112000900F6CF80F9F7CF81F9F55026
:102BD0009EA8FED7AD6E80C9F6FF81C9F7FF090137
:102BE0007F2F01D002D00001EDD700011200EF527B
:102BF00010E0EACF80F9E9CF7FF9EF509EA8FED729
:102C0000AD6E80C9EAFF7FC9E9FFE92AD8B4EA2A94
:102C1000EED712009EA8FED7AD6E12000D0E9EA834
:102C2000FED7AD6E0A0E9EA8FED7AD6E020E09014C
:102C30007F6FFA0E8D6F000156EC0DF009017F2FAA
:102C4000F8D7840EF66E0C0EF76E0C0E7F6F000137
:102C5000B9DF7CC9EAFF7BC9E9FFC9DF220E9EA864
:102C6000FED7AD6E0D0E9EA8FED7AD6E040E090107
:102C70007F6FFA0E8D6F000156EC0DF009017F2F6A
:102C8000F8D77EC9EAFF7DC9E9FF0001B0DF0D0E6C
:102C90009EA8FED7AD6E0A0E9EA8FED7AD6E1A0E88
:102CA000B9DF1C0E09017F6FFA0E8D6F000156EC23
:102CB0000DF009017F2FF8D7010E8C6F0001B3ECE6
:102CC0000DF01200010E0901306F305105082DE39F
:102CD000036A3051C90FE96E010E0320EA6EEF520C
:102CE00001E121D030C97BF9010E7D6FB30E7C6FFD
:102CF000000123DF0101B35315E0B33D01D012D031
:102D00009D9C9D90010E09017C6FB30E7B6F2FC9B6
:102D10007EF92EC97DF9000181DF9D8C9D80C00E5A
:102D2000F21201010901302BD0D700011200F2CFBD
:102D300007F9F29EAA6A9C0EA96EA69CA69EA68082
:102D4000A850090107BFF28E0801E46FE451AA08F8
:102D5000D8A46ED00301012D01D003D0080168D0A2
:102D600003010501995308E19A5306E1000151EC72
:102D70000FF008015DD005010301029F05019C8150
:102D80001C9A97533EE10401875339E1885337E198
:102D9000000187DE0152D8A402D0040130D01C8685
:102DA000AADE010E0401866F856F410EB66F020127
:102DB000882D24D09D9C9D90080EEA6EE50EE96E4C
:102DC000F2CF07F9F29E220E016EF76A000E0001A3
:102DD000E7EC00F00A000900F5CFEEFF012EFBD76B
:102DE000090107BFF28E080E2F6FE50E2E6F00014E
:102DF00069DF9D8C9D80C00EF2120201040107D094
:102E000005011C960401866B856B610EB66F040E7E
:102E10000901076FFA0E8D6F000156EC0DF00901E4
:102E2000072FF8D7010E8C6F0001B3EC0DF00801ED
:102E30000001F2EF64F00201C65105019A5DD8B4B9
:102E40006DD0F250006EF29EAA6A970EA96E99C5D7
:102E5000A8FFA69CA69EA6840F01550EA76EAA0EDB
:102E6000A76EA682A6B2FED7A6940050F212F2CFA9
:102E700000F0F29EAA6A980EA96E9AC5A8FFA69CB9
:102E8000A69EA684550EA76EAA0EA76EA682A6B20F
:102E9000FED7A6940050F212F2CF00F0F29EAA6A7A
:102EA0009A0EA96E97C5A8FFA69CA69EA684550E4D
:102EB000A76EAA0EA76EA682A6B2FED7A694005051
:102EC000F212F2CF00F0F29EAA6A9B0EA96E96C58E
:102ED000A8FFA69CA69EA684550EA76EAA0EA76E56
:102EE000A682A6B2FED7A6940050F212F2CF00F04E
:102EF000F29EAA6A9C0EA96EAA0EA86EA69CA69E19
:102F0000A684550EA76EAA0EA76EA682A6B2FED7FD
:102F1000A6940050F2129AC5C6F20501000120EFF6
:102F200065F00801E76BE76BE7510408D8A019D1F9
:102F300005019651040801E215D19651040DF35094
:102F4000200F0801EC6FF2CF2EF9F29EAA6AECC8AE
:102F5000A9FFA69CA69EA680A85009012EBFF28EAE
:102F60000801E86F010EEC2509012E6FF2CF2FF951
:102F7000F29EAA6A2EC9A9FFA69CA69EA680A8506A
:102F80002FBFF28E0801E96F020EEC2509012E6FAA
:102F9000F2CF2FF9F29EAA6A2EC9A9FFA69CA69E7F
:102FA000A680A8502FBFF28E0801EA6F030EEC2511
:102FB00009012E6FF2CF2FF9F29EAA6A2EC9A9FF3E
:102FC000A69CA69EA680A8502FBFF28E0801EB6F8C
:102FD000E851170801E2E86BE9513B0801E2E96BAF
:102FE000EA51170801E2EA6BEB513B0801E2EB6B97
:102FF000E8530BE1E95309E1EA5307E1EB5305E13B
:103000000501962B0801E72B8FD70501976BE8C8C0
:1030100099F5E9C89AF59B6B0301029F05019C8114
:103020000201C669F250006EF29EAA6A970EA96E5E
:10303000E8C8A8FFA69CA69EA6840F01550EA76E01
:10304000AA0EA76EA682A6B2FED7A6940050F212D0
:10305000F2CF00F0F29EAA6A980EA96EE9C8A8FF06
:10306000A69CA69EA684550EA76EAA0EA76EA68243
:10307000A6B2FED7A6940050F212F2CF00F0F29E54
:10308000AA6A9A0EA96EA86AA69CA69EA684550E48
:10309000A76EAA0EA76EA682A6B2FED7A69400506F
:1030A000F212F2CF00F0F29EAA6A9B0EA96E96C5AC
:1030B000A8FFA69CA69EA684550EA76EAA0EA76E74
:1030C000A682A6B2FED7A6940050F212F2CF00F06C
:1030D000F29EAA6A9C0EA96EAA0EA86EA69CA69E37
:1030E000A684550EA76EAA0EA76EA682A6B2FED71C
:1030F000A6940050F212E9C8C6F29D9C9D9004016E
:10310000875328E1885326E10001CBDC0152D8A483
:1031100002D004011FD01C86EEDC010E0401866F74
:10312000856F410EB66F0201882D13D0010EEA6E35
:10313000D00EE96EE26A1E0EE16EE752E6CFEEFFB8
:10314000FCE1010E09012F6FD00E2E6F0001BADDD8
:10315000020104019D8C9D80C00EF212E4D0080192
:10316000E3D605010301029F05019C91000151EC8A
:103170000FF00301042D62D00501966B010E0901C9
:103180008C6F0001B3EC0DF0010E0901896F8A6F9D
:10319000000145EC10F0940EF66E180EF76EA6ECDA
:1031A00010F0010E0901896F020E8A6F000145ECD3
:1031B00010F0A60EF66E180EF76EA6EC10F00201D7
:1031C000882D28D09D9C9D90080EEA6EED0EE96E2C
:1031D000F2CF2EF9F29E1D0E016EF76A000E00016D
:1031E000ACEC00F00A000900F5CFEEFF012EFBD792
:1031F00009012EBFF28E010E7C6F700E7B6F080EE0
:103200007E6FED0E7D6F000109DD9D8C9D80C00EEF
:10321000F2120201060E09012E6FFA0E8D6F0001E7
:1032200056EC0DF009012E2FF8D7010E8C6F00011E
:10323000B3EC0DF0080177D675D00301016B1C9635
:10324000F250006EF29EAA6A950EA96EA86AA69C1C
:10325000A69EA6840F01550EA76EAA0EA76EA68283
:10326000A6B2FED7A6940050F212010E09018C6F8F
:103270000001B3EC0DF0010E0901896F8A6F0001A6
:1032800045EC10F0B80EF66E180EF76EA6EC10F0C6
:10329000010E0901896F020E8A6F000145EC10F0E2
:1032A000CA0EF66E180EF76EA6EC10F00201882D0D
:1032B00028D09D9C9D90090EEA6E0A0EE96EF2CF11
:1032C0002EF9F29E240E016EF76A000E0001C8EC82
:1032D00000F00A000900F5CFEEFF012EFBD709012F
:1032E0002EBFF28E010E7C6F700E7B6F090E7E6F0B
:1032F0000A0E7D6F000192DC9D8C9D80C00EF21243
:103300000201080E09012E6FFA0E8D6F000156ECB6
:103310000DF009012E2FF8D7010E8C6F0001B3ECD0
:103320000DF008010401000112008A888A9A040144
:10333000866B0901236B0201CB5305E1CA510901D8
:10334000235D0EE20201050E0901246FC60E8D6F8A
:10335000000156EC0DF00901242FF8D7232BEBD7F1
:10336000610E0401B66F882D01D001D08A8A000158
:10337000120009016E51016A6D5D03E26DC900F032
:103380000CD0006A080E6F6F6D3700366E51005C0E
:10339000D8B0006E01366F2FF7D70001120005017B
:1033A0009CB391D09CB10CD0030102BF07D01CBAD2
:1033B00005D00501966B0001B4DD0301050183D042
:1033C000030102AF7FD0029F05019C9197536AE1F0
:1033D0009651040DF350200F0801E46F020EE4250E
:1033E000E76FF2CFE8F8F29EAA6AE7C8A9FFA69CA9
:1033F000A69EA680A850E8BFF28EE56F030EE425D6
:10340000E76FF2CFE9F8F29EAA6AE7C8A9FFA69C87
:10341000A69EA680A850E9BFF28EE66FE551170878
:1034200001E2E56BE6513B0801E2E66B010E0501A6
:10343000976FE5C899F5E6C89AF59B6B0301029F63
:1034400005019C810201C6699D9C9D901C9604010A
:103450008A6B896B8F6B8E6B886B0501546B0001D7
:1034600064DF0401866B856B610EB66F0201882DE7
:1034700013D0010EEA6ED00EE96EE26A3E0EE16EE6
:10348000E752E6CFEEFFFCE1010E09012F6FD00EEF
:103490002E6F000117DC02019D8C9D80C00EF21280
:1034A00010D00501010E96250801E86FE8CF6DF9EF
:1034B000050E09016E6F00015CDF00C096F531DD7D
:1034C00002010301050100012BEF65F004014253E5
:1034D000D8B49FD082C424F981C423F900014AECF6
:1034E0000EF09BC426F99AC425F999C424F998C40E
:1034F00023F903C02AF902C029F901C028F900C044
:1035000027F914EC0FF03BE382C424F981C423F9BA
:103510004AEC0EF09FC426F99EC425F99DC424F9F7
:103520009CC423F903C02AF902C029F901C028F973
:1035300000C027F914EC0FF022E30801E481030135
:10354000012D09D00501972D01D002D0030103D030
:103550000801E4910301040189530FE18A530DE14D
:1035600088530BE1862D09D00801E4B102D0040193
:1035700004D004018A6B010E896F4AD0000165C531
:1035800024F964C523F94AEC0EF003C026F902C001
:1035900025F901C024F900C023F99BC42AF99AC473
:1035A00029F999C428F998C427F914EC0FF019E205
:1035B00067C524F966C523F94AEC0EF003C026F965
:1035C00002C025F901C024F900C023F99FC42AF9DB
:1035D0009EC429F99DC428F99CC427F914EC0FF066
:1035E00005E3020E0401886F13D000010401885323
:1035F00004E18A6B896B8F6B8E6B8851020808E13E
:103600000501542D01D002D0040102D00401886BC1
:10361000D0D082C424F981C423F900014AEC0EF011
:103620009BC426F99AC425F999C424F998C423F9AE
:1036300003C02AF902C029F901C028F900C027F9FE
:1036400014EC0FF054E382C424F981C423F94AEC4A
:103650000EF09FC426F99EC425F99DC424F99CC48C
:1036600023F903C02AF902C029F901C028F900C0D2
:1036700027F914EC0FF03BE382C424F981C423F949
:103680004AEC0EF0A3C426F9A2C425F9A1C424F97A
:10369000A0C423F903C02AF902C029F901C028F9FE
:1036A00000C027F914EC0FF022E30801E4830301C2
:1036B000012D09D00501972D01D002D0030103D0BF
:1036C0000801E4930301040189530FE18A530DE1DA
:1036D00088530BE1862D09D00801E4B302D0040120
:1036E00004D004018A6B010E896F63D0000165C5A7
:1036F00024F964C523F94AEC0EF003C026F902C090
:1037000025F901C024F900C023F99BC42AF99AC401
:1037100029F999C428F998C427F914EC0FF037E374
:1037200067C524F966C523F94AEC0EF003C026F9F3
:1037300002C025F901C024F900C023F99FC42AF969
:103740009EC429F99DC428F99CC427F914EC0FF0F4
:103750001EE369C524F968C523F94AEC0EF003C0DD
:1037600026F902C025F901C024F900C023F9A3C439
:103770002AF9A2C429F9A1C428F9A0C427F914EC94
:103780000FF005E3020E0401886F13D0000104015D
:10379000885304E18A6B896B8F6B8E6B88510208AA
:1037A00008E10501542D01D002D0040102D004012A
:1037B000886B00013CEF65F0800ED8A202D00901B1
:1037C0002C1B0901316B326B28C930F92C51301B8D
:1037D0002751D8B4DFD02F6F006E2B51D8B4E3D06F
:1037E0002F5FD8B483D03EE32CC935F9358F2DC96E
:1037F00034F92EC933F9326BD8903533343333333F
:1038000032332F2FF8D730AF03D03181E0D0319150
:103810002F913189090EEA6E2A0EE96EEBD03199AB
:1038200030BF0AD02FA113D0353334333333323382
:10383000002AD8B4C7D00BD035BF0CD0D8903237BF
:103840003337343735370006D8B4BCD0F5D7318D8F
:103850006DD0319D28C930F928AF02D0358FABD05B
:10386000359FA9D02BC92FF92BC900F027512F5F05
:1038700028C935F9358F29C934F92AC933F9326B8A
:10388000D89035333433333332332F2FF8D730AF2A
:1038900003D031839CD031932F91318B090EEA6E86
:1038A0002E0EE96EA7D0319B30BF0AD02FA113D0C6
:1038B0003533343333333233002AD8B483D00BD08A
:1038C00035BF0CD0D8903237333734373537000610
:1038D000D8B478D0F5D7318F29D0319F2CC930F9A1
:1038E0002CAF02D0358F67D0359F65D02CC935F904
:1038F000358F2DC934F92EC933F930AF04D0359F37
:10390000318565D03195326B2F91090EEA6E2A0E02
:10391000E96E70D030BF1CD028C930F92FA106D075
:103920003533343333333233002A4CE032AF0BD0EB
:10393000332B09E1342B07E1352B05E135333433E3
:103940003333002A3FE031BD84D731BFC6D71CD006
:10395000800E351B35AF04D03AD02CC930F90AD0CF
:1039600028C930F9355306E1345304E1335302E1F9
:10397000006A21D035BF08D0D8903237333734377A
:103980003537002EF7D71ED030AF02D0358F13D089
:10399000359F11D02BC900F02CC935F92DC934F948
:1039A0002EC933F908D027C900F028C935F929C92B
:1039B00034F92AC933F935C901F034C902F033C9E1
:1039C00003F034D0006A016A026A036A2FD0326BB6
:1039D000331F341F351F321F322B05E1332B03E118
:1039E000342B01E1352B31B112D731B354D731B576
:1039F00089D7B3D7EF50332705E3342B03E1352BB9
:103A0000D8B42F81ED52EF50342703E3352BD8B4CF
:103A10002F81ED52EF50EFBE01D0800A3527D8B08C
:103A20002F8131B9FCD631BB3ED774D700011200CB
:103A300005019CA18FD099C59DF59AC59EF59BC5A2
:103A40009FF597C5A0F596C5A1F59C83F250006E31
:103A5000F29EAA6A9E0EA96E9DC5A8FFA69CA69E70
:103A6000A6840F01550EA76EAA0EA76EA682A6B257
:103A7000FED7A6940050F212F2CF00F0F29EAA6A8E
:103A80009F0EA96E9EC5A8FFA69CA69EA684550E55
:103A9000A76EAA0EA76EA682A6B2FED7A694005065
:103AA000F212F2CF00F0F29EAA6AA00EA96E9FC594
:103AB000A8FFA69CA69EA684550EA76EAA0EA76E6A
:103AC000A682A6B2FED7A6940050F212F2CF00F062
:103AD000F29EAA6AA10EA96EA0C5A8FFA69CA69EEA
:103AE000A684550EA76EAA0EA76EA682A6B2FED712
:103AF000A6940050F212F2CF00F0F29EAA6AA20E33
:103B0000A96EA1C5A8FFA69CA69EA684550EA76E69
:103B1000AA0EA76EA682A6B2FED7A6940050F212F5
:103B2000F2CF00F0F29EAA6A9D0EA96EBB0EA86E9F
:103B3000A69CA69EA684550EA76EAA0EA76EA68268
:103B4000A6B2FED7A6940050F21205019C91030183
:103B5000029F050100011200DEC224F9DDC223F933
:103B60004AEC0EF003C0E7F802C0E6F801C0E5F841
:103B700000C0E4F8E0C224F9DFC223F94AEC0EF0F9
:103B800003C0EBF802C0EAF801C0E9F800C0E8F8A9
:103B9000E2C224F9E1C223F94AEC0EF003C0EFF8C7
:103BA00002C0EEF801C0EDF800C0ECF8E7C8F3F889
:103BB000E6C8F2F8E5C8F1F8E4C8F0F8F3C826F969
:103BC000F2C825F9F1C824F9F0C823F9EBC82AF99D
:103BD000EAC829F9E9C828F9E8C827F914EC0FF070
:103BE00008E3EBC8F3F8EAC8F2F8E9C8F1F8E8C866
:103BF000F0F8F3C826F9F2C825F9F1C824F9F0C89D
:103C000023F9EFC82AF9EEC829F9EDC828F9ECC85C
:103C100027F914EC0FF008E3EFC8F3F8EEC8F2F858
:103C2000EDC8F1F8ECC8F0F8E7C8F7F8E6C8F6F820
:103C3000E5C8F5F8E4C8F4F8EBC826F9EAC825F9B0
:103C4000E9C824F9E8C823F9F7C82AF9F6C829F918
:103C5000F5C828F9F4C827F914EC0FF008E3EBC80D
:103C6000F7F8EAC8F6F8E9C8F5F8E8C8F4F8EFC8D4
:103C700026F9EEC825F9EDC824F9ECC823F9F7C8F0
:103C80002AF9F6C829F9F5C828F9F4C827F914EC77
:103C90000FF008E3EFC8F7F8EEC8F6F8EDC8F5F84E
:103CA000ECC8F4F8D892E7C82AF9E6C829F9E5C8BB
:103CB00028F9E4C827F9EBC82EF9EAC82DF9E9C8B4
:103CC0002CF9E8C82BF978DD03C026F902C025F9E4
:103CD00001C024F900C023F9D89203C02AF902C018
:103CE00029F901C028F900C027F9EFC82EF9EEC85C
:103CF0002DF9EDC82CF9ECC82BF95EDD03C026F9CF
:103D000002C025F901C024F900C023F903C02AF933
:103D100002C029F901C028F900C027F909012E6B5A
:103D20002D6B400E2C6F800E2B6F000165EC0EF09A
:103D300003C0FBF802C0FAF801C0F9F800C0F8F8B7
:103D4000FBC826F9FAC825F9F9C824F9F8C823F9F7
:103D500009012A6B296B286B276B000114EC0FF00B
:103D600005E10201F76B1C9CFFD00001D882F3C86B
:103D70002AF9F2C829F9F1C828F9F0C827F9F7C8D3
:103D80002EF9F6C82DF9F5C82CF9F4C82BF914DD75
:103D900003C026F902C025F901C024F900C023F9A7
:103DA00026C92AF925C929F924C928F923C927F9D7
:103DB000FBC82EF9FAC82DF9F9C82CF9F8C82BF967
:103DC00065EC0EF003C026F902C025F901C024F904
:103DD00000C023F926C9FDF925C9FCF924C9FBF95E
:103DE00023C9FAF90A01016B006B480E0901FF6F44
:103DF000850EFE6F0001B6EC10F003C0FFF802C0A4
:103E0000FEF801C0FDF800C0FCF8F2CF23F9F29EE5
:103E1000AA6A270EA96EA69CA69EA680A850090194
:103E200023BFF28E246FF2CF25F9F29EAA6A260EE6
:103E3000A96EA69CA69EA680A85025BFF28E266FCE
:103E400024C901F926C900F9015303E100516408AE
:103E500003E2016B1E0E006F01C924F900C923F9AA
:103E600000014AEC0EF003C026F902C025F901C09A
:103E700024F900C023F9FFC82AF9FEC829F9FDC8B2
:103E800028F9FCC827F914EC0FF06BE38B92010EB4
:103E90000201F76F0401862D62D01CBC60D01C8C1F
:103EA0009D9C9D90000195EC19F00401866B856B3B
:103EB000610EB66F0301012D09D005019CB102D03E
:103EC000030104D00001B4DD1C9603010201882D1A
:103ED00041D0090EEA6E020EE96EF2CF23F9F29E8E
:103EE000210E016EF76A000E00017AEC00F00A0064
:103EF0000900F5CFEEFF012EFBD7090123BFF28E9B
:103F0000090E2F6F020E2E6F000162EC16F00301F6
:103F1000012D1FD0090EEA6E020EE96EF2CF23F9D1
:103F2000F29E0D0E016EF76A000E000198EC00F093
:103F30000A000900F5CFEEFF012EFBD7090123BFD0
:103F4000F28E090E2F6F020E2E6F000162EC16F03A
:103F5000030102019D8C9D80C00EF212040105D068
:103F600000010201F76B1C9C040100013EEF65F0AB
:103F700009010D51B6080D6F036A0EC911F90E8FB4
:103F8000D8900E330F331033033202320132003235
:103F90000D2FF6D711AF0BD0001E011E021E031EFF
:103FA000002AD8B4012AD8B4022AD8B4032A0001BE
:103FB00054EF20F0D8B204D0090EEA6E150EE96E67
:103FC000006A016A026A036A0901156B166B176BB6
:103FD000186B14511311121111112CE0200E196FCE
:103FE000D8900D370E370F3710371537163717376C
:103FF00018371451185D08E11351175D05E112518E
:10400000165D02E11151155D0FE31151155F12515B
:10401000D8A0123D165F1351D8A0133D175F14515D
:10402000D8A0143D185FD88000360136023603361A
:10403000192FD6D715C9EFFF16C9ECFF17C9ECFF2A
:1040400018C9ECFF00011200E9500901006F0801D6
:10405000FF510901026F1EE0FEC8FDF9FDC8FCF921
:10406000FCC8FBF9FBC8FAF90A01016B006B200ED2
:104070000901FF6F820EFE6F0001B6EC10F003C065
:10408000FEF802C0FDF801C0FCF800C0FBF8090111
:10409000022FE2D7FEC810F9FDC80FF9FCC80EF9CF
:1040A000FBC80DF9000164D703C0FEF802C0FDF89B
:1040B00001C0FCF800C0FBF80801FEAF0FD00901F9
:1040C0000007008B0801FB1FFC1FFD1FFE1FFB2BC1
:1040D000D8B4FC2BD8B4FD2BD8B4FE2B3B0E090171
:1040E000076F9A0E066FCA0E056F046B0A0E026FF9
:1040F0000801FF51D8A403D00901002B0801D88280
:10410000080EEA6EFB0EE96EFEC810F9FDC80FF945
:10411000FCC80EF9FBC80DF907C914F906C913F953
:1041200005C912F904C911F9000144DF0150005218
:1041300014E10801FF290901025DD8A402D00001A1
:104140000CD000510DE00F0B025D01E050E200BF0A
:104150004ED000BD05D0200E43D0200E090100171F
:1041600000AB14D0009B0801FF51D8B403D0090163
:104170000007080100500901006F2D0E926F000129
:104180008FEC10F009010051006E006B0801FF5127
:104190000901025D0DE10050006F2E0E926F0001CB
:1041A0008FEC10F009010051006E200E0017000E78
:1041B000300E00AB15D0009B0801FF51D8B403D0DE
:1041C00009010007080100500901006F2D0E926FD0
:1041D00000018FEC10F009010051006E006B300EF1
:1041E000002600C092F900018FEC10F00901D8926E
:1041F00007C910F906C90FF905C90EF904C90DF967
:10420000146B136B126B0A0E116F0001D3DE03C027
:1042100007F902C006F901C005F900C004F9090157
:10422000022F01D002D008016AD700011200EACFA4
:1042300083F9E9CF82F909017C39F0097E6F7E2785
:10424000E20F7F6F320F816F7C510F0B7F277F272B
:104250008127E90F806F802780277B390F0B80270C
:10426000812780378137811F81377B510F0B812751
:104270007E37070E7D6F0A0E80078127FDE37F07DB
:104280008027FDE37E077F27FDE37D077E27FDE393
:10429000090EEA6E7D0EE96E070E8215829DE926F3
:1042A000000EEA22E950810804E1EA50090801E120
:1042B000828DEF50006E08E182BD06D082B916D023
:1042C00082B702D0200E03D082878299300E00265A
:1042D000EACF7CF9E9CF7BF900C092F900018FECBD
:1042E00010F07CC9EAFF7BC9E9FF0901EE5082ADFD
:1042F000D9D7000112009DC599F59EC59AF59FC5B5
:104300009BF5A0C597F5A1C596F50301029F050190
:104310009C819C93975302E1010E01D0000E1C96E4
:10432000E8B01C86F250006EF29EAA6A9D0EA96E3D
:10433000A86AA69CA69EA6840F01550EA76EAA0E7B
:10434000A76EA682A6B2FED7A6940050F212F2CFB4
:1043500000F0F29EAA6A970EA96E99C5A8FFA69CC6
:10436000A69EA684550EA76EAA0EA76EA682A6B21A
:10437000FED7A6940050F212F2CF00F0F29EAA6A85
:10438000980EA96E9AC5A8FFA69CA69EA684550E57
:10439000A76EAA0EA76EA682A6B2FED7A69400505C
:1043A000F212F2CF00F0F29EAA6A990EA96E9BC596
:1043B000A8FFA69CA69EA684550EA76EAA0EA76E61
:1043C000A682A6B2FED7A6940050F212F2CF00F059
:1043D000F29EAA6A9A0EA96E97C5A8FFA69CA69EF1
:1043E000A684550EA76EAA0EA76EA682A6B2FED709
:1043F000A6940050F212F2CF00F0F29EAA6A9B0E31
:10440000A96E96C5A8FFA69CA69EA684550EA76E6B
:10441000AA0EA76EA682A6B2FED7A6940050F212EC
:10442000F2CF00F0F29EAA6A9C0EA96EAA0EA86EA8
:10443000A69CA69EA684550EA76EAA0EA76EA6825F
:10444000A6B2FED7A6940050F2129AC5C6F2000199
:104450001200016A026A006A036A0A01075102E156
:10446000065118E0100E086FD89004370537003653
:1044700003360751035C02E10651005C07E3065175
:10448000005ED8A003060751035ED88001360236CD
:10449000082FEAD700011200200E090168A9300E8A
:1044A000696F67C900F067AF08D0001E002A00C01E
:1044B00067F92D0E696F688F6881015067C96DF9C2
:1044C000640E6E6F0001B9EC19F000C067F9300E90
:1044D000012409016A6F67C96DF90A0E6E6F000148
:1044E000B9EC19F0300E002409016C6F300E012474
:1044F0006B6F69C900F0300E6A5D04E0688368BFC5
:10450000688512D069C96AF9200E696F300E6B5D3B
:1045100004E0688168BF688307D0D8A4688104E19B
:104520006AC96BF9200E6A6F68B505D068B308D008
:1045300068B10BD00FD069C992F900018FEC10F06F
:104540006AC992F900018FEC10F06BC992F9000171
:104550008FEC10F06CC992F900018FEC10F0120092
:10456000200E0801E5A9300EE66FE4C800F0E4AFC4
:1045700008D0001E002A00C0E4F82D0EE66FE58F7B
:10458000E5810150E4C86DF9640E09016E6F000108
:10459000B9EC19F000C0E4F8300E01240801E76F0F
:1045A000E4C86DF90A0E09016E6F0001B9EC19F04B
:1045B000300E00240801E96F300E0124E86FE6C8D0
:1045C00000F0300EE75D04E0E583E5BFE58512D03D
:1045D000E5B510D0E6C8E7F8E5B304D0300EE85DE5
:1045E00004E0E581E5BFE58305D0D8A4E581D8B432
:1045F000E7C8E8F8E5B505D0E5B308D0E5B10BD0DC
:104600000FD0E6C892F900018FEC10F0E7C892F9DC
:1046100000018FEC10F0E8C892F900018FEC10F067
:10462000E9C892F900018FEC10F012000801E86B64
:10463000E96BEA6BE6C8E9FFE7C8EAFFEF6A036ADD
:10464000E851E425E96EE5510320EA6EEF5254E0AB
:10465000E951090851E3036AE851E425E96EE5519F
:104660000320EA6EEF50220803E1EA2BE82BE7D79C
:10467000EA5102083FE1036AE851E425E96EE55199
:104680000320EA6EEF502B080CE0036AE851E425A2
:10469000E96EE5510320EA6EEF50390804E1E95371
:1046A00002E1E82BCCD7036AE851E425E96EE55135
:1046B0000320EA6EEFCFEBF8EB512F081BE2EB5132
:1046C000390818E3E951E92B036AE625016EE75141
:1046D000032203C0ECF8036AE851E425E96EE551D2
:1046E0000320EA6EEFCFEDF8ECC8EAFF01C0E9FF66
:1046F000EDC8EFFFE82BA3D7036AE951E625E96E81
:10470000E7510320EA6EEF6AE9533FE1E86BE96B9A
:10471000EA6B036AE851E425E96EE5510320EA6E8D
:10472000EF522BE0E951090828E3036AE851E42538
:10473000E96EE5510320EA6EEF50220802E1EA2B10
:104740001AD0EA2D18D0E951E92B036AE625016E4B
:10475000E751032203C0ECF8036AE851E425E96E4F
:10476000E5510320EA6EEFCFEDF8ECC8EAFF01C097
:10477000E9FFEDC8EFFFE82BCCD7036AE951E62546
:10478000E96EE7510320EA6EEF6A0001EBEF6DF08E
:10479000EF5210E0EACF8AF9E9CF89F9EFCF92F929
:1047A0008FEC10F08AC9EAFF89C9E9FFE92AD8B479
:1047B000EA2AEED71200A4C5EAFFA3C5E9FF0A0161
:1047C0000FCAEFFFE92AD8B4EA2AEF6A0501A32B42
:1047D000D8B4A42B000112000900F5520CE0F6CF6A
:1047E000FAF9F7CFFBF9F5CF0FFAE5DFFAC9F6FFD3
:1047F000FBC9F7FFF1D7120009010951010803E2D3
:104800000951050801E24FD0036A0951C90FE96E49
:10481000010E0320EA6E0AC9EFFFF2CF0CF9F29EF7
:10482000AA6A940EA96EA69CA69EA680A8500CBF4C
:10483000F28E0B6F0B3D02D01E0E0B6F0A2D0ED0A9
:10484000010E095D016E010E006E015204E0D89068
:104850000036012EFCD700500B130ED0010E095D5F
:10486000016E010E006E015204E0D8900036012E58
:10487000FCD70050FF0A0B17F250006EF29EAA6A96
:10488000940EA96E0BC9A8FFA69CA69EA6840F0134
:10489000550EA76EAA0EA76EA682A6B2FED7A69444
:1048A0000050F2120901000112000900F6CF07FAC8
:1048B000F7CF08FAF5CF0FFA7EDF07CAF6FF08CA6E
:1048C000F7FF0A01062F01D002D00001EED7000148
:1048D0001200200E09010AA9300E0B6F09C900F061
:1048E00009AF08D0001E002A00C009F92D0E0B6F79
:1048F0000A8F0A81015009C96DF9640E6E6F0001BB
:10490000B9EC19F000C009F9300E012409010C6F4F
:1049100009C96DF90A0E6E6F0001B9EC19F0300E7D
:10492000002409010E6F300E01240D6F0BC900F039
:10493000300E0C5D04E00A830ABF0A8512D00BC951
:104940000CF9200E0B6F300E0D5D04E00A810ABFDA
:104950000A8307D0D8A40A8104E10CC90DF9200EFE
:104960000C6F0AB505D00AB307D00AB109D00CD034
:104970000BC90FFA00011FDF0CC90FFA00011BDF82
:104980000DC90FFA000117DF0EC90FFA000113DF7E
:104990001200040E0801E425E96E000EE521EA6E1E
:1049A000300EEF5CE86F010E09018C6F0001B3EC73
:1049B0000DF0010E0901896F8A6F000145EC10F0BE
:1049C000A80EF66E0C0EF76E030E0901896F00013A
:1049D000BCEC14F0E5C8EAFFE4C8E9FFD9DE020E3A
:1049E0000901896F010E8A6F000145EC10F0AE0ECF
:1049F000F66E0C0EF76E040E0901896F0001BCEC17
:104A000014F0E7C8EAFFE6C8E9FFC2DEB40EF66EAE
:104A10000C0EF76E040E0901896F0001BCEC14F056
:104A2000E8C867F9180E0901686F000135DD0C0E42
:104A30000901096FFA0E8D6F000156EC0DF00901A6
:104A4000092FF8D70801E851010803E2E8510508E9
:104A500019E2080E0501A46FE90EA36FBC0EF66EF5
:104A60000C0EF76E0001B8DE010E09017C6F700EAE
:104A70007B6F080E7E6FE90E7D6F00010EEC16F065
:104A800082D00801010EE425E96E000EE521EA6EF0
:104A9000EF50450839E19D9C9D90E8C809F9010E49
:104AA00009010A6F0001A8DE080E0501A46FE90ED6
:104AB000A36FD80EF66E0C0EF76E050E0A01066F88
:104AC0000001F3DEE8C809F9180E09010A6F0001B8
:104AD00000DFDF0EF66E0C0EF76E080E0A01066F91
:104AE0000001E3DE010E09017C6F700E7B6F080E82
:104AF0007E6FE90E7D6F00010EEC16F09D8C9D809F
:104B0000C00EF21240D00801010EE425E96E000E3D
:104B1000E521EA6EEF50440837E19D9C9D90E8C87E
:104B200009F909010A6B000167DE080E0501A46F8F
:104B3000E90EA36FE80EF66E0C0EF76E050E0A0175
:104B4000066F0001B2DEE8C809F9180E09010A6F04
:104B50000001BFDEEF0EF66E0C0EF76E090E0A01B5
:104B6000066F0001A2DE010E09017C6F700E7B6FE3
:104B7000080E7E6FE90E7D6F00010EEC16F09D8C25
:104B80009D80C00EF2120801000107EF6EF0FBC914
:104B9000FFF9FAC9FEF9FFC903F00901FEC9E9FFEF
:104BA000FFC9EAFFEF5206E0FE2BD8B4FF2B00014D
:104BB000F2D70901FDC903F0FCC9E9FFFDC9EAFF0D
:104BC000EF5215E0FCC9E9FFFDC9EAFFEFCF02FA99
:104BD0000A01FFC9EAFFFEC9E9FF02CAEFFF0901A6
:104BE000FE2BD8B4FF2BFC2BD8B4FD2BE3D7FEC98A
:104BF000E9FFFFC9EAFFEF6AFAC901F0FBC902F059
:104C000000011200EACF0EFAE9CF0DFA0A010739C6
:104C1000F009096F0927E20F0A6F320F0C6F075175
:104C20000F0B0A270A270C27E90F0B6F0B270B27FF
:104C300006390F0B0B270C270B370C370C1F0C37C3
:104C400006510F0B0C270937070E086F0A0E0B07CA
:104C50000C27FDE30A070B27FDE309070A27FDE3FD
:104C600008070927FDE30A0EEA6E080EE96E070E33
:104C70000D150D9DE926000EEA22E9500C0804E10D
:104C8000EA500A0801E10D8DEF50006E08E10DBDFC
:104C900006D00DB915D00DB702D0200E03D00D8768
:104CA0000D99300E0026EACF07FAE9CF06FA00C0C8
:104CB0000FFA000180DD07CAEAFF06CAE9FF0A0110
:104CC000EE500DADDAD70001120053C47EF952C484
:104CD0007DF955C480F954C47FF957C482F956C48C
:104CE00081F95BC4FDF95AC4FCF959C4FBF958C4F5
:104CF000FAF90A01016B006B200E0901FF6F820EA9
:104D0000FE6F0001B6EC10F003C0FDF902C0FCF923
:104D100001C0FBF900C0FAF945EC11F002C084F9BA
:104D200001C083F95FC4FDF95EC4FCF95DC4FBF901
:104D30005CC4FAF90A01016B006B200E0901FF6FD8
:104D4000820EFE6F0001B6EC10F003C0FDF902C048
:104D5000FCF901C0FBF900C0FAF945EC11F002C002
:104D600086F901C085F963C4FDF962C4FCF961C428
:104D7000FBF960C4FAF90A01016B006B200E09010E
:104D8000FF6F820EFE6F0001B6EC10F003C0FDF95C
:104D900002C0FCF901C0FBF900C0FAF945EC11F0C2
:104DA00002C088F901C087F909017BC9E9FF7CC904
:104DB000EAFFEF6A0401862D0CD07CC9FBF97BC9A0
:104DC000FAF90901FD6B5E0EFC6F0001E0DE0BD00D
:104DD00004017CC9FBF97BC9FAF90901FD6B7E0E60
:104DE000FC6F0001D4DE0D0E0901896F0A0E8A6F77
:104DF0008B6B7CC9FBF97BC9FAF9090EFD6F890E33
:104E0000FC6F0001C4DE0301012D0DD0090E050168
:104E1000A46F8C0EA36F0C0EF66E0C0EF76E0001D5
:104E2000DBDC0CD00301090E0501A46F8C0EA36F0F
:104E30001A0EF66E0C0EF76E0001CEDC7CC9FBF983
:104E40007BC9FAF9090E0901FD6F8C0EFC6F000198
:104E50009EDE090E0501A46FA00EA36F2A0EF66E4A
:104E60000C0EF76E0B0E0A01066F00011EDD100E10
:104E7000E96E7EC907FA7DC906FAC4DE380EF66E01
:104E80000C0EF76E070E0A01066F00010EDD100E04
:104E9000E96E80C907FA7FC906FAB4DE420EF66EE3
:104EA0000C0EF76E070E0A01066F0001FEDC100EF5
:104EB000E96E82C907FA81C906FAA4DE4C0EF66EC5
:104EC0000C0EF76E040E0A01066F0001EEDC7CC9C1
:104ED000FBF97BC9FAF9090E0901FD6FA00EFC6F01
:104EE000000155DE84C905FA83C904FA0A01076B7B
:104EF0000A0E066F000129EC22F002C0FBF901C086
:104F0000FAF984C905FA83C904FA0A01076B0A0E83
:104F1000066F000129EC22F000C0FCF903C0FDF986
:104F200084C905FA83C904FA0A01076B0A0E066FE1
:104F3000000129EC22F000C0FCF903C0FDF986C98C
:104F400005FA85C904FA0A01076B0A0E066F00010B
:104F500029EC22F002C0FFF901C0FEF986C905FA6A
:104F600085C904FA0A01076B0A0E066F000129ECD5
:104F700022F000C000FA0A0103C001FA86C905FA4E
:104F800085C904FA076B0A0E066F000129EC22F0AE
:104F900000C000FA0A0103C001FA88C905FA87C9EE
:104FA00004FA076B0A0E066F000129EC22F002C01A
:104FB00003FA01C002FA88C905FA87C904FA0A018E
:104FC000076B0A0E066F000129EC22F00A0188C95E
:104FD00005FA87C904FA076B0A0E066F000129EC6F
:104FE00022F000C004FA03C005FA090E0501A46FFF
:104FF000C80EA36F520EF66E0C0EF76E0B0E0A0162
:10500000066F000152DC100EE96EFBC907FAFAC9FF
:1050100006FAF8DD2E0E0A010F6F0001DBEC23F01B
:10502000100EE96EFDC907FAFCC906FAEBDD640E45
:10503000F66E0C0EF76E070E0A01066F000135DCE6
:10504000100EE96EFFC907FAFEC906FADBDD2E0E67
:105050000A010F6F0001DBEC23F0100EE96E01CAAC
:1050600007FA00CA06FACEDD720EF66E0C0EF76E67
:10507000070E0A01066F000118DC100EE96E03CA64
:1050800007FA02CA06FABEDD2E0E0A010F6F0001F2
:10509000DBEC23F0100EE96E05CA07FA04CA06FA23
:1050A000B1DD200E0A010F6F0001DBEC23F0410E91
:1050B0000A010F6F0001DBEC23F07CC9FBF97BC90F
:1050C000FAF9090E0901FD6FC80EFC6F00015FDDE2
:1050D00071EF28F0080E09017C6FE40E7B6F000170
:1050E000F4D5010E09017A6F7A5105082EE3036A9F
:1050F0007A51C90FE96E010E0320EA6EEF2C23D01E
:105100007AC97BF9010E7D6FB30E7C6F00019DECB7
:1051100015F00101B35316E0B33D01D013D09D9CAF
:105120009D90010E09017C6FB30E7B6F080E7E6FA0
:10513000E40E7D6F00010EEC16F09D8C9D80C00E7C
:10514000F212010109017A2BCFD7000193EF71F020
:10515000200E0801E8A9300EE96FE7C800F0E7AFBC
:1051600008D0001E002A00C0E7F82D0EE96FE88F76
:10517000E8810150E7C86DF9640E09016E6F000106
:10518000B9EC19F000C0E7F8300E01240801EA6F0D
:10519000E7C86DF90A0E09016E6F0001B9EC19F04C
:1051A000300E00240801EC6F300E0124EB6FE9C8CB
:1051B00000F0300EEA5D04E0E883E8BFE88512D035
:1051C000E9C8EAF8200EE96F300EEB5D04E0E881F3
:1051D000E8BFE88307D0D8A4E88104E1EAC8EBF887
:1051E000200EEA6FE8B505D0E8B307D0E8B109D0E2
:1051F0000CD0E9519EA8FED7AD6EEA519EA8FED70D
:10520000AD6EEB519EA8FED7AD6EEC519EA8FED7B9
:10521000AD6E000160EF29F0FA0EF66E0C0EF76E1F
:105220000C0E09017F6F0001E2EC15F0010EEA6E31
:10523000700EE96EF7EC15F0220E9EA8FED7AD6E4B
:105240000D0E9EA8FED7AD6E040E0801E76FFA0E94
:1052500009018D6F000156EC0DF00801E72FF7D71B
:10526000010EEA6E1E0EE96E0001F7EC15F00D0E50
:105270009EA8FED7AD6E0A0E9EA8FED7AD6E010E9B
:105280000801E66FE651050834E3E6C87BF9010E34
:1052900009017D6FB30E7C6F00019DEC15F00C0EC3
:1052A000F66E0D0EF76E030E09017F6F0001E2EC42
:1052B00015F0E6C8E7F8180E0801E86F000148D7B6
:1052C0003A0E9EA8FED7AD6E200E9EA8FED7AD6EFC
:1052D000010EEA6EB30EE96EF7EC15F00D0E9EA806
:1052E000FED7AD6E0A0E9EA8FED7AD6E0801E62B66
:1052F000C9D71A0E00010AEC16F0100E0801E76F6C
:10530000FA0E09018D6F000156EC0DF00801E72F30
:10531000F7D700013BEF72F0016603D0026602D0BE
:1053200007D0022A00C0EEFF012EFCD7022EFAD7CA
:1053300012000801E62D03D0620EE76F19D0E65186
:10534000020803E16C0EE76F13D0E651030803E196
:10535000760EE76F0DD0E651040803E1800EE76F8B
:1053600007D0E651050803E18A0EE76F01D001D1AD
:10537000E86BE851090825E3E851E725EE6F036A79
:10538000E851E425E96EE5510320EA6EEFCFEFF82E
:10539000F250006EF29EAA6AEEC8A9FFEFC8A8FFFD
:1053A000A69CA69EA6840F01550EA76EAA0EA76EF8
:1053B000A682A6B2FED7A6940050F2120801E82BEE
:1053C000D8D7E96BE951090819E3036AE951700F6D
:1053D000E96E010E0320EA6E620EE925F06FF2CF4E
:1053E000F1F8F29EAA6AF0C8A9FFA69CA69EA68024
:1053F000A850F1BFF28EEF6EE92BE4D701017A6B72
:105400000801EA6BEA51090819E3036AEA517B0FC4
:10541000E96E010E0320EA6E6C0EEA25F06FF2CF02
:10542000F1F8F29EAA6AF0C8A9FFA69CA69EA680E3
:10543000A850F1BFF28EEF6EEA2BE4D70101856B25
:105440000801EB6BEB51090819E3036AEB51860F76
:10545000E96E010E0320EA6E760EEB25F06FF2CFB7
:10546000F1F8F29EAA6AF0C8A9FFA69CA69EA680A3
:10547000A850F1BFF28EEF6EEB2BE4D70101906BD9
:105480000801EC6BEC51090819E3036AEC51910F28
:10549000E96E010E0320EA6E800EEC25F06FF2CF6C
:1054A000F1F8F29EAA6AF0C8A9FFA69CA69EA68063
:1054B000A850F1BFF28EEF6EEC2BE4D701019B6B8D
:1054C0000801ED6BED51090819E3036AED519C0FDA
:1054D000E96E010E0320EA6E8A0EED25F06FF2CF21
:1054E000F1F8F29EAA6AF0C8A9FFA69CA69EA68023
:1054F000A850F1BFF28EEF6EED2BE4D70101A66B41
:10550000010E09018C6F0001B3EC0DF0010E0901D1
:10551000896F8A6F000145EC10F0960EF66E0C0E46
:10552000F76E0F0E0901896F0001BCEC14F0E6C89C
:1055300067F9180E0901686F00014CEC22F0010EAA
:105540000901896F020E8A6F000145EC10F0E5C871
:10555000EAFFE4C8E9FFC8EC23F0080E0801EE6F8B
:10556000FA0E09018D6F000156EC0DF00801EE2FC7
:10557000F7D7000112000501A5510301055DD8B45C
:10558000C7D0010E09018C6F0001B3EC0DF0010EC4
:105590000901896F8A6F000145EC10F0010E0301CB
:1055A000055DEE0FD8B095D0120F00018BEF2BF0F8
:1055B000180EF66E0D0EF76EA6EC10F0030189D0F2
:1055C000280EF66E0D0EF76EA6EC10F0030181D0DA
:1055D000380EF66E0D0EF76EA6EC10F0030179D0C2
:1055E0004A0EF66E0D0EF76EA6EC10F0030171D0A8
:1055F000580EF66E0D0EF76EA6EC10F0030169D092
:105600006A0EF66E0D0EF76EA6EC10F0030161D077
:105610007A0EF66E0D0EF76EA6EC10F0030159D05F
:105620008A0EF66E0D0EF76EA6EC10F0030151D047
:105630009C0EF66E0D0EF76EA6EC10F0030149D02D
:10564000AA0EF66E0D0EF76EA6EC10F0030141D017
:10565000BA0EF66E0D0EF76EA6EC10F0030139D0FF
:10566000CA0EF66E0D0EF76EA6EC10F0030131D0E7
:10567000DA0EF66E0D0EF76EA6EC10F0030129D0CF
:10568000E80EF66E0D0EF76EA6EC10F0030121D0B9
:10569000FA0EF66E0D0EF76EA6EC10F0030119D09F
:1056A000060EF66E0E0EF76EA6EC10F0030111D08A
:1056B000160EF66E0E0EF76EA6EC10F0030109D072
:1056C000220EF66E0E0EF76EA6EC10F0030101D05E
:1056D0000301010E0901896F020E8A6F000145EC7A
:1056E00010F003010551120809E1320EF66E0E0E9C
:1056F000F76E0001A6EC10F008D00301400EF66E24
:105700000E0EF76E0001A6EC10F005C3A5F503011F
:105710000001B5EF2BF0F2CF0DF0F29EE824F76A0E
:10572000F7363B0FF66E570EF7220A00F550FA6E69
:105730000800F5500DBEF28EF96EB055C055D0552B
:10574000E055F055005610562056305640565056EB
:105750006056705680569056A056B056C0560301FB
:105760000653D8B47CD0000106D782BA14D09288F0
:1057700080A811D0050E09018D6F000156EC0DF0C7
:105780000301052B0551120802E2010E056F82AAE2
:10579000FED716D00001928880B813D082AA11D00B
:1057A000050E09018D6F000156EC0DF00301052D6A
:1057B00003D0120E056F01D00507928880A8FDD78F
:1057C000000181BC44D0140E09018D6F000156EC1C
:1057D0000DF081BC3CD081BC07D00A0E09018D6F51
:1057E000000156EC0DF0F7D70301055112082CE12A
:1057F0000201F56B0301066B010E09018C6F0001BC
:10580000B3EC0DF0010E0901896F8A6F000145ECC0
:1058100010F0500EF66E0E0EF76EA6EC10F0040EA1
:105820000801E46FFA0E09018D6F000156EC0DF0CE
:105830000801E42FF7D7010E09018C6F0001B3ECCA
:105840000DF00CD004D00301066B000107D0010E4F
:1058500009018D6F000156EC0DF081D703010001A5
:1058600077EF57F00301052B0551120802E2010EF4
:10587000056F010E066F0001120081ACFED7010E0C
:1058800009018C6F0001B3EC0DF0010E0901896F65
:105890008A6F000145EC10F0600EF66E0E0EF76E8A
:1058A000A6EC10F0F2CFE7F8F29EAA6AA96AA69CCD
:1058B000A69EA680A8500801E7BFF28EE46FE4C858
:1058C000E5F8E669010E0901896F020E8A6F000191
:1058D00045EC10F00801E45309E1700EF66E0E0E6F
:1058E000F76E0001A6EC10F008D00801840EF66EE9
:1058F0000E0EF76E0001A6EC10F082BA12D092885C
:1059000080A80FD0050E09018D6F000156EC0DF037
:10591000010E0801E425010BE46F82AAFED716D020
:105920000001928880B813D082AA11D0050E090117
:105930008D6F000156EC0DF00801E45302E1010EF9
:1059400001D0000EE46F928880A8FDD70001080105
:10595000E651E45D1EE0010E0901896F020E8A6FB7
:10596000000145EC10F00801E45309E1980EF66ED1
:105970000E0EF76E0001A6EC10F008D00801AC0E78
:10598000F66E0E0EF76E0001A6EC10F0E4C8E6F815
:10599000080181BCAED0140E09018D6F000156ECD8
:1059A0000DF081BCA5D00801E551E45D6CE0F2503A
:1059B000006EF29EAA6AA96AE4C8A8FFA69CA69EE9
:1059C000A6840F01550EA76EAA0EA76EA682A6B2D8
:1059D000FED7A6940050F212010E09018C6F00014F
:1059E000B3EC0DF0010E0901896F8A6F000145ECDF
:1059F00010F0C00EF66E0E0EF76EA6EC10F0010E53
:105A00000901896F020E8A6F000145EC10F0080150
:105A1000E4530BE1CC0EF66E0E0EF76E0001A6EC11
:105A200010F0E4C842F40AD00801D40EF66E0E0E4F
:105A3000F76E0001A6EC10F0E4C842F481ACFED78A
:105A4000010E0901896F020E8A6F000145EC10F00A
:105A5000DC0EF66E0E0EF76EA6EC10F081BCFED7D3
:105A6000140E09018D6F000156EC0DF081ACFED7CC
:105A7000320E09018D6F000156EC0DF0E4C8F6F20C
:105A8000F1DE35D0080181ACFED7010E09018C6F23
:105A90000001B3EC0DF0010E0901896F8A6F00015E
:105AA00045EC10F0EE0EF66E0E0EF76EA6EC10F052
:105AB000010E0901896F020E8A6F000145EC10F09A
:105AC000F80EF66E0E0EF76EA6EC10F081BCFED747
:105AD000140E09018D6F000156EC0DF081ACFED75C
