:0400000069EF57F05D
:08000800046ED8CF05F0E0CF33
:1000100006F00001E9CF0CF0EACF07F0E1CF08F0DD
:10002000E2CF09F0D9CF0AF0DACF0BF0F3CF12F01C
:10003000F4CF13F0FACF14F000C00EF001C00FF0AF
:1000400002C010F003C011F09DAA2AEF00F09EBA82
:1000500079EF05F09DAC30EF00F09EBC6BEF03F044
:100060009DA036EF00F09EB09AEF04F00EC000F0B5
:100070000FC001F010C002F011C003F00CC0E9FF86
:1000800007C0EAFF078E08C0E1FF09C0E2FF0AC00F
:10009000D9FF0BC0DAFF12C0F3FF13C0F4FF14C086
:1000A000FAFF045006C0E0FF05C0D8FF1000F2CFF1
:1000B0000DF0F29EF76AC80FF66E000EF7220900E7
:1000C000F5500DBEF28E120005001E0032006400D5
:1000D000C8002C01F2CF0DF0F29EF76AEE0FF66E1B
:1000E000000EF7220900F5500DBEF28E1200010637
:1000F0000A14283CF2CF0DF0F29EF76A0E0FF66E4E
:10010000010EF7220900F5500DBEF28E12004D6F60
:10011000746F72204F46462044756520746F2055D9
:100120006E62616C616E6365642054726970000078
:10013000F2CF0DF0F29EF76A4A0FF66E010EF7222B
:100140000900F5500DBEF28E120054696D657220E3
:1001500048414C5445440000F2CF0DF0F29EF76A3E
:10016000720FF66E010EF7220900F5500DBEF28EE9
:10017000120054696D6572732072657065617469EF
:100180006E672066726F6D20736C6F742031000093
:10019000F2CF0DF0F29EF76AAA0FF66E010EF7226B
:1001A0000900F5500DBEF28E1200416C6C2074698E
:1001B0006D65727320646F6E652E2053776974636A
:1001C00068656420746F204D414E55414C00F2CF5C
:1001D0000DF0F29EF76AE80FF66E010EF7220900A5
:1001E000F5500DBEF28E120054696D657220726575
:1001F00073756D656420616674657220706F7765D4
:100200007220726573746F726500F2CF0DF0F29E0A
:10021000F76A240FF66E020EF7220900F5500DBEA4
:10022000F28E12004472792052756E204D6F746FF9
:1002300072204F464600F2CF0DF0F29EF76A500F43
:10024000F66E020EF7220900F5500DBEF28E120076
:100250004D6F746F72204F4E20616674657220443A
:1002600072792052756E2052657374617274000049
:10027000F2CF0DF0F29EF76A8A0FF66E020EF722A9
:100280000900F5500DBEF28E120054696D657220A2
:10029000526573756D656400F2CF0DF0F29EF76ADA
:1002A000B20FF66E020EF7220900F5500DBEF28E67
:1002B00012004D6F746F72204F46462044756520C2
:1002C000746F204869676820566F6C7461676500B9
:1002D000F2CF0DF0F29EF76AEA0FF66E020EF722E9
:1002E0000900F5500DBEF28E12004D6F746F722032
:1002F0004F46462044756520746F204C6F7720561A
:100300006F6C746167650000F2CF0DF0F29EF76AC2
:10031000220FF66E030EF7220900F5500DBEF28E85
:1003200012004D6F746F72204F4646204475652051
:10033000746F204F7665726C6F616400F2CF0DF0C0
:10034000F29EF76A560FF66E030EF7220900F5507B
:100350000DBEF28E120052657065617465722045A3
:100360004E41424C45440000F2CF0DF0F29EF76A38
:10037000820FF66E030EF7220900F5500DBEF28EC5
:1003800012004175746F205374617274206F6E6C2B
:100390007920616C6C6F77656420696E204D414EE9
:1003A00055414C206D6F64650000F2CF0DF0F29E58
:1003B000F76AC40FF66E030EF7220900F5500DBE62
:1003C000F28E12004175746F20537461727420456F
:1003D0004E41424C45440000F2CF0DF0F29EF76AC8
:1003E000F20FF66E030EF7220900F5500DBEF28EE5
:1003F00012004175746F2053746172742044495324
:1004000041424C454400F2CF0DF0F29EF76A200FB6
:10041000F66E040EF7220900F5500DBEF28E1200A2
:1004200052657065617465722044495341424C4580
:100430004400F2CF0DF0F29EF76A4C0FF66E040EF8
:10044000F7220900F5500DBEF28E12004D6F746F49
:1004500072204F46462C2054696D65722048414CED
:1004600054454400F2CF0DF0F29EF76A7E0FF66E0F
:10047000040EF7220900F5500DBEF28E12004D4F0A
:10048000544F52204F464620537769746368656421
:100490002046524F4D2054494D455220544F204D37
:1004A000414E55414C204D4F44450000F2CF0DF0D8
:1004B000F29EF76AC60FF66E040EF7220900F55099
:1004C0000DBEF28E12005377697463686564207400
:1004D0006F2054494D4552206D6F64652E2054693C
:1004E0006D657273207374617274696E672E00009B
:1004F000F2CF0DF0F29EF76A0A0FF66E050EF722A4
:100500000900F5500DBEF28E1200537769746368CE
:10051000656420746F2054494D4552206D6F6465A9
:100520002E204E6F2074696D65727320636F6E6646
:100530006967757265642100F2CF0DF0F29EF76A6B
:10054000520FF66E050EF7220900F5500DBEF28E21
:10055000120050686173652073657420746F2032D7
:100560005000F2CF0DF0F29EF76A7C0FF66E050E8A
:10057000F7220900F5500DBEF28E1200506861732B
:10058000652073657420746F20335000F2CF0DF036
:10059000F29EF76AA60FF66E050EF7220900F550D7
:1005A0000DBEF28E1200496E76616C696420736C28
:1005B0006F74206E756D6265722028312D352900AB
:1005C000F2CF0DF0F29EF76ADA0FF66E050EF72203
:1005D0000900F5500DBEF28E12004175746F205364
:1005E000746172743A204D6F746F72204F4E2061A7
:1005F0006674657220706F77657220726573746FB0
:1006000072650000F2CF0DF0F29EF76A1E0FF66ED3
:10061000060EF7220900F5500DBEF28E12004D4F66
:10062000544F52204F4E20284D616E75616C290049
:10063000F2CF0DF0F29EF76A4A0FF66E060EF72221
:100640000900F5500DBEF28E12004D4F544F52204E
:100650004F464620284D616E75616C2900000901E6
:10066000C751070B006EC731016E013201321F0EF8
:1006700001160150C825E96E000EC921EA6EEFCFC0
:1006800001F0002A01D00132002EFDD70001F8EF61
:1006900003F00901C751070B006EC731016E01322B
:1006A00001321F0E01160150C925E96E000ECA2144
:1006B000EA6E016A012A002A01D00136002EFDD718
:1006C000C85303E00150EF1203D0011E0150EF1692
:1006D000000105EF04F0C2B2FED7C4CFC6F909018C
:1006E000C3CFC5F90401585102082AE3D890583500
:1006F000036A390FE96E040E0320EA6EECCF03F0B3
:10070000ED52EFCF01F003500901C65DD8B002D021
:10071000040116D006E1C551015CD8A002D0040145
:100720000FD0D89004015835036A390FE96E040ED2
:100730000320EA6EC6C9ECFFED52C5C9EFFF2CD00D
:100740005851020829E2D8905835036A390FE96EEA
:10075000040E0320EA6EECCF03F0ED52EFCF01F070
:100760000901C651035CD8B002D0040115D006E1DE
:100770000150C55DD8A002D004010ED0D89004016C
:100780005835036A390FE96E040E0320EA6EC6C9B4
:10079000ECFFED52C5C9EFFF5851020844E3D89071
:1007A0005835036A660FE96E040E0320EA6EECCF3B
:1007B000C8F9ED52EFCFC7F90901C85306E1C75197
:1007C0008C08D8A002D004012ED0C653D8B402D0D1
:1007D000040129D0C5518C08D8B002D0040123D01F
:1007E00058C4C7F9040EC96F6C0EC86F000137D723
:1007F00001B01AD058C4C7F9010E0901C86F040E20
:10080000CA6F6C0EC96F000144D704017051020811
:100810000AE37051702B036A6D0FE96E040E03201A
:10082000EA6E58C4EFFF00010401585102080DE3BD
:10083000D8905835036A660FE96E040E0320EA6EFD
:10084000C6C9ECFFED52C5C9EFFF595318E1585125
:10085000000A000105E0010A08E0030A0BE00DD0E0
:10086000010E0401586F000108D0020E0401586FF8
:10087000000103D00401586B00011FD0040158513E
:10088000FA0F1CE2060F000176EF04F0010E0401DE
:10089000586F14D0020E0401586F10D0030E0401DB
:1008A000586F0CD0040E0401586F08D0050E0401D7
:1008B000586F04D00401586B01D004015851050849
:1008C00007E1380E016EC250830B0110C26E09D0D1
:1008D0005835006E0036FC0E0016C250830B001017
:1008E000C26EC2829E9C000136EF00F0E824F76AD7
:1008F000F736070FF66E090EF7220A00F550FA6E6A
:100900000800F550F96E8C0894089C08A408AC08FF
:10091000B4080901C551C703F3CF01F0F4CF00F0CB
:10092000C803F3500026C651C703F3500020026EDF
:10093000000112000401382B0501875304E188539C
:1009400002E1895318E0852B8551130814E2856B69
:10095000895302E089070FD03B0E896F885302E06C
:10096000880709D03B0E886F875302E0870703D0C2
:10097000776B786B796B862B8651130805E2866B53
:100980005E513A0801E35E2B04017C5302E17D5382
:1009900003E07C2BD8B47D2B7E5314E1762D12D04E
:1009A000775310E10201F553D8B402D004010AD004
:1009B00005018353D8B402D0040104D004017F2B75
:1009C000D8B4802B815302E1825303E0812BD8B449
:1009D000822B0201F52D28D00401EABD02D00201CC
:1009E00023D005018C2B8C5113081DE28C6B8D5389
:1009F00008E18E5306E18F5304E10401EA8B11D024
:100A000005018F5302E08F070BD03B0E8F6F8E5383
:100A100002E08E0705D03B0E8E6F8D5301E08D07EF
:100A200004011C880501020104013851310804E267
:100A3000010E576F386BAD6F73C4C6F972C4C5F938
:100A40000901C86B140EC76F000163DF0250036E0B
:100A500004017D5D06E303E17C51015C02E2010ECD
:100A60007B6F805103081DE2FF0A03E17F51AF084D
:100A700018E27E5316E1762D14D0775312E102016D
:100A8000F553D8B402D004010CD005018353D8B477
:100A900002D0040106D0010E0401786F7E6F806BD6
:100AA0007F6B82C5C6F981C5C5F90901C86B140EF3
:100AB000C76F00012EDF0250036E0401825D05E363
:100AC00003E18151015C01E27B6B850ECF6EEE0E7E
:100AD000CE6E9E90000136EF00F09EAAFED7ABCFFF
:100AE0001DF0AECF01F01DA202D0AB98AB887FEF16
:100AF00005F002018853D8B44BD00001EED701C0F5
:100B0000C5F90901C55123080CE0C5513F0809E0AA
:100B1000C551240806E0C551400803E0C551250829
:100B200012E10201C56B010E0501966F0201C5516C
:100B3000C52B036A890FE96E020E0320EA6EC5C950
:100B4000EFFF26D009010501965323E00901C551A5
:100B50000D0803E0C5510A080DE1036A0201C55101
:100B6000890FE96E020E0320EA6EEF6A1C8405010C
:100B7000966B0FD00201C5513A080AE3C551C52B47
:100B8000036A890FE96E020E0320EA6EC5C9EFFF02
:100B900005019E9A000136EF00F04D6F64653A2022
:100BA00054494D45520D0A004D6F64653A204D4140
:100BB0004E55414C0D0A0000566F6C7461676520FC
:100BC000523A20256C7520562C20593A20256C75F8
:100BD00020562C20423A20256C7520560D0A000024
:100BE00043757272656E7420523A20256C752E25FD
:100BF0006C7520412C20593A20256C752E256C757A
:100C000020412C20423A20256C752E256C75204100
:100C1000000041542B434D47533D222B393125735E
:100C2000220D000072783A257300736E643A2573C2
:100C300020736C3A25640000496E76616C6964200B
:100C4000736C6F74212055736520322D35206F6EC3
:100C50006C790000536C6F7420256420456E6162CE
:100C60006C656400536C6F74202564204469736163
:100C7000626C6564000041542B434D47533D222B69
:100C800039312573220D00004E756D25643A2025FB
:100C9000730D0A00312E504841534520534554549A
:100CA000494E4700322E4A5549434520434F4E5442
:100CB000524F4C00332E504F574552204F4E204438
:100CC000454C41590000342E534554204F4E20547A
:100CD000494D4500352E535441522044454C544112
:100CE00020444C590000362E564F4C542053455446
:100CF00054494E470000372E4452592052554E2039
:100D000044454C415900382E44525952554E2052B8
:100D10004553544152540000392E44525952554EB5
:100D200020545249500031302E4D414E55414C2FE8
:100D300054494D45520031312E4359434C494320CB
:100D400054494D45520031322E52455045415420B0
:100D500054494D45520031332E4155544F20535480
:100D60004152540031342E554E42414C414E434580
:100D700044205452500031352E435420545950458C
:100D8000000031362E47534D2053455454494E47A9
:100D9000000031372E50492054455354000031385B
:100DA0002E4558495420544F204D41494E00507211
:100DB00065737320746F20455849540050726573F1
:100DC0007320746F20454E544552000045584954D5
:100DD000494E47204D454E552E2E2E00312E50485F
:100DE0004153452053455454494E47003E3E20321E
:100DF0002050484153452020202020202020000062
:100E00003E3E2033205048415345202020202020C2
:100E1000202000003E3E20322050484153452020F3
:100E200020202020202000003E3E2033205048413A
:100E300053452020202020202020000050484153EE
:100E40004520534156454400322050484153450007
:100E50003320504841534500507265737320454E0E
:100E6000544552202020202000004E6F204368610E
:100E70006E676500507265737320454E544552008D
:100E80002573204E524D0000257320465354000018
:100E900025732053554600003E3E20256C6400001B
:100EA000322E4A5549434520434F4E54524F4C0031
:100EB0003E3E20454E41424C45202020202020200F
:100EC00020003E3E2044495341424C4520202020F2
:100ED000202020003E3E20454E41424C452020200F
:100EE0002020202020003E3E2044495341424C45D2
:100EF00020202020202020004A55494345204354EB
:100F0000524C2053415645440000535441545553CC
:100F10003A20454E41424C45202000005354415454
:100F200055533A2044495341424C452000005072E9
:100F300065737320454E5445522020202020000028
:100F4000332E50575220444C59204E4F524D0000E2
:100F5000332E50575220444C5920464153540000E0
:100F6000332E50575220444C5920535546410000CF
:100F7000202020256C6420736563202020004445D8
:100F80004C41592053415645442100002020202542
:100F90006C64207365632020200050726573732099
:100FA000454E544552202020202000004E6F204303
:100FB00068616E676500507265737320454E5445D5
:100FC0005200352E535441522044454C54204E5229
:100FD0004D00352E535441522044454C5420465325
:100FE0005400202020256C6420736563202020009D
:100FF0002044454C4159205341564544212000008E
:10100000202020256C64207365632020200050720E
:1010100065737320454E5445522020202020000047
:101020004E6F204368616E67650050726573732070
:10103000454E54455200362E564F4C54205345547D
:1010400054494E47202000004C4F5720564F4C54D7
:10105000205345542020202000004C562053415658
:10106000454420202020202020200000256C753AB7
:10107000256C753A256C75202020202020004849D9
:10108000474820564F4C5420534554202020000000
:10109000485620534156454420202020202020201F
:1010A0000000256C753A256C753A256C752020205A
:1010B000202020004F5645524C4F41442053455468
:1010C0002020202000004F4C205341564544202032
:1010D0002020202020200000256C753A256C753AD0
:1010E000256C7520202020202000564F4C54204D88
:1010F000454E5520444F4E4520200000476F696EF5
:101100006720746F206E6578742E2E2E0000372EA7
:1011100044525952554E20444C59204E4F524D0086
:10112000372E44525952554E20444C592046415373
:101130005400372E44525952554E20444C59205396
:1011400055464100202020256C64207365632020D3
:1011500020002044454C415920534156454421002C
:10116000202020256C6420736563202020005072AD
:1011700065737320454E54455220202020200000E6
:101180004E6F204368616E6765005072657373200F
:10119000454E54455200382E44525952554E205215
:1011A0005354204E4F524D00382E44525952554EF2
:1011B00020525354204641535400382E4452595221
:1011C000554E20525354205355464100202020258F
:1011D0006C6420736563202020002044454C4159F5
:1011E0002053415645442120202000002020202566
:1011F0006C64207365632020200050726573732037
:10120000454E544552202020202000004E6F2043A0
:1012100068616E676500507265737320454E544572
:101220005200392E44525952554E20545250204E9D
:10123000524D0000392E44525952554E20545250AE
:10124000204653540000202020256C6420416D70FE
:101250007320202000002056414C55452053415614
:1012600045442120200020256C6420416D707320AE
:1012700020200000507265737320454E5445522063
:101280002020202000004E6F204368616E676500BB
:10129000507265737320454E54455200342E5345A9
:1012A00054204F4E2054494D45204E524D00342E6F
:1012B000534554204F4E2054494D45204653540029
:1012C000202020256C64207365632020200020549A
:1012D000494D4520534156454421202020002020DF
:1012E00020256C6420736563202020005072657394
:1012F0007320454E544552202020202000004E6F80
:10130000204368616E676500507265737320454EB7
:101310005445520031302E4D414E55414C2F5449C9
:101320004D4552003E3E204D414E55414C2020201F
:101330002020202020003E3E2054494D45522020B0
:1013400020202020202020003E3E204D414E5541AF
:101350004C2020202020202020003E3E2054494DBB
:101360004552202020202020202020004D4F4445A1
:1013700020534156454421004D4F44453A204D41AC
:101380004E55414C2020202000004D4F44453A202E
:1013900054494D45522020202020000031302E435A
:1013A00059434C49432054494D4552004359434CFD
:1013B00049432054494D45522025640050726573BD
:1013C0007320746F20454E54455200004F4E203A12
:1013D00000004F46463A00004F4E202054494D45EC
:1013E0005220256420204F464600253032753A258C
:1013F000303275202020202020253032753A2530CB
:1014000032750000392E4155544F205354415254E7
:1014100000003E3E20454E41424C452020202020E9
:101420002020202000003E3E2044495341424C45AC
:10143000202020202020202000003E3E20454E413C
:10144000424C4520202020202020202000003E3E2D
:101450002044495341424C45202020202020202078
:1014600000004D4F444520534156454421005354FC
:10147000415455533A20454E41424C4520200000EE
:101480005354415455533A2044495341424C45200A
:101490000000507265737320454E54455220202041
:1014A000202000004E6F204368616E676500507217
:1014B00065737320454E5445520031322E554E42CD
:1014C000414C414E43454420545250004C696D6993
:1014D000743A2025334C752525004C494D4954203C
:1014E00053415645442100004C696D69743A2025EA
:1014F000334C75252500507265737320454E544555
:1015000052202020202000004E6F204368616E672B
:101510006500507265737320454E54455200313357
:101520002E53454C454354204354205459504500B4
:101530003E2025336C754120282532753A3129200B
:1015400020004354205341564544210043543A203F
:10155000256C7541202825753A3129005072657334
:101560007320454E544552202020202000004E6F0D
:10157000204368616E676500507265737320454E45
:101580005445520031352E504920544553542D496D
:101590005240316D0000203A2025332E3166204D17
:1015A0004F686D2020200000495240316D2053418A
:1015B00056454421000056616C75653A2025332E4E
:1015C0003166204D4F686D00507265737320454E33
:1015D00054455220202020200000456E7465722062
:1015E00049524031306D696E20200000203A20259C
:1015F000332E3166204D4F686D2020200000504969
:101600002056414C55455320534156454421000036
:10161000316D3A25332E31662031306D3A25332E27
:1016200031660000507265737320454E5445522058
:1016300020202020000050493D25332E32662052C4
:101640004553554C54200000474F4F4420494E53BA
:10165000554C4154494F4E200000504F4F522049A5
:101660004E53554C4154494F4E20000042414420B6
:10167000494E53554C4154494F4E2020000047538A
:101680004D20494E49542E2E2E00506C65617365D5
:1016900020776169740041540D0041540D0041549C
:1016A0002B434D47463D310D000041542B434E4DD9
:1016B000493D322C322C302C302C300D000041545E
:1016C0002B434D47443D312C340D000047534D20F2
:1016D00052454144590031322E5245504541542023
:1016E00054494D4552003E3E20454E41424C452016
:1016F00020202020202020003E3E2044495341420B
:101700004C4520202020202020003E3E20454E41F8
:10171000424C452020202020202020003E3E204416
:10172000495341424C452020202020202000524592
:10173000504541542053415645442100535441548F
:1017400055533A20454E41424C4520200000535409
:10175000415455533A2044495341424C45200000DE
:1017600031342E47534D2053455454494E470000C1
:101770003E3E20454E41424C452020202020202046
:1017800020003E3E2044495341424C452020202029
:10179000202020003E3E20454E41424C4520202046
:1017A0002020202020003E3E2044495341424C4509
:1017B000202020202020200047534D205341564513
:1017C00044005354415455533A20454E41424C45F0
:1017D000202000005354415455533A20444953416A
:1017E000424C4520000047534D20454E41424C4558
:1017F00044005245535441525420444556494345B0
:10180000000047534D2044495341424C4544000099
:1018100054494D45525320524550454154212020B2
:10182000000052657374617274696E672E2E2E20EB
:1018300020200000414C4C2054494D455253204437
:101840004F4E4521000053776974636865643A4DD3
:10185000414E55414C2000004E45572051424954BD
:10186000524F4E49435300004449474954414C208C
:1018700053544152544552004449474954414C2025
:1018800053544152544552005365712E20436865AC
:10189000636B696E672E2E2E0000504F5745522005
:1018A0004F4E20444C592E2E2E00202020256C64B3
:1018B00020736563202020004452592052554E2049
:1018C000545249502100413A25322E306620543A74
:1018D000256C75004452592052535420444F4E45B4
:1018E00021005475726E696E67204F4E2E2E2E00A9
:1018F0004F4E20004F4646004F4E20004F464600B8
:1019000054696D65722025640000253032643A25E3
:101910003032643A25303264202020004F4E2000BF
:1019200054696D65722025640000253032643A25C3
:101930003032643A25303264202020004F46460081
:10194000496E76616C696420666F726D61743A20CD
:10195000236E3C736C6F743E3C313064696769740C
:10196000206E756D6265723E00004572726F723A4C
:10197000204E656564203130206469676974732C7A
:1019800020676F74202564004E756D626572207348
:101990006176656420746F20736C6F742025640019
:1019A000454E544552494E47204D454E552E2E2EFC
:1019B0000000090EEA6E420EE96EEF500DE0060ED1
:1019C000016E006A002EFED7012EFBD77B0E006E43
:1019D000002EFED7EF2EF3D7120094988B98939099
:1019E0008A90080E09014A6F4A5319E049514A1575
:1019F00003E094968B8602D094968B96100E006E20
:101A0000002EFED7000094988B88100E006E002EDA
:101A1000FED7000094988B98D8904A33E5D71CA045
:101A200003D094968B8602D094968B964A6B4A513B
:101A3000010810E3100E006E002EFED700009498EF
:101A40008B88100E006E002EFED7000094988B98A5
:101A50004A2BEDD793908A80020E006E002EFED79F
:101A600000D0000093908A90000112001C900901A0
:101A70004139426F0F0E421742C949F90001ADDFEB
:101A8000090141510F0B426F496F0001A6DF0901A7
:101A900041510C081BE0412D01D018D041510E08D6
:101AA00015E041510F0812E0415110080FE041517B
:101AB0001E080CE04151180809E04151080806E0F1
:101AC0004151140803E04151020805E1320E426F12
:101AD00000016FDF0901000112001C9094968B96A3
:101AE00094988B9893908A90949694989390280EBB
:101AF0000901426F00015DDF030E0901416F000122
:101B0000B5DF050E0901426F000153DF030E090125
:101B1000416F0001ABDF050E0901426F000149DF93
:101B2000030E0901416F0001A1DF050E0901426F9B
:101B300000013FDF020E0901416F000197DF050E32
:101B40000901426F000135DF280E0901416F0001D4
:101B50008DDF320E0901426F00012BDF0C0E0901EF
:101B6000416F000183DF320E0901426F000121DF66
:101B7000060E0901416F000179DF320E0901426F43
:101B8000000117DF0C0E0901416F00016FDF320EFB
:101B90000901426F00010DDF12008E0E006ED9C8E0
:101BA00001F0D8C802F0036A015209E102C001F055
:101BB000026A080E005E015202E1006A08D0D89065
:101BC00001BE04D0023601360006F9D7019E12008C
:101BD0000801DC51D8B4A5D0E86FE051D8B4A1D049
:101BE000E85F05E37F0EE827D8B09BD006D0810ED2
:101BF000E85FD8A096D0D8B494D0E8C800F0016AC5
:101C0000026A036AE76BDDC8E6F8E68FDEC8E5F82E
:101C1000DFC8E4F8190EE86FE351E45F0DE2010E4E
:101C2000E55F0AE2E65F08E2E75F06E2E72BE62B04
:101C3000E52BE351E42728D0E251E55F12E2010EE3
:101C4000E65F0FE2E75F0DE2E72BE62BE251E527C7
:101C5000E351E42719E3E52B17E1E62B15E1E72B28
:101C600013D0E1518009E65F0EE2010EE75F0BE25F
:101C7000E72BE1518009E627E251E527E9E3E62B6E
:101C8000E7E1E72BE5D70380E82F01D00BD0D89010
:101C9000E437E537E637E737D890033602360136C2
:101CA000E937BAD7E9A106D0D8900132023203321F
:101CB000E93302D0000635E0E9BF1ED0D890E43702
:101CC000E537E637E737E351E45F07E2010EE55F0A
:101CD00004E2E65F02E2E75F1AE3E251E55F05E254
:101CE000010EE65F02E2E75F12E3E1518009E65F81
:101CF00003E2010EE75F0BE3032A09E1022A07E191
:101D0000012A05E1002A0DE0013202320332DDC86A
:101D1000E8F8E151E81BE8AF02D0018E06D0019E41
:101D200004D0006A016A026A036A00011200D9C87D
:101D3000E0F80801DD51E01BE0AF05D0D894D89061
:101D4000D9BFD8802FD0D9C8E0F8DCC8E1F8D85185
:101D5000E15F06E0E0AF26D0D850010AD86E22D06D
:101D6000DDC8E1F8D951E15F06E0E0AF1BD0D85003
:101D7000010AD86E17D0DEC8E1F8DA51E15F06E05B
:101D8000E0AF10D0D850010AD86E0CD0DFC8E1F80F
:101D9000DB51E15F06E0E0AF05D0D850010AD86E14
:101DA00001D0D89000011200F250006EF29EAA6A93
:101DB0009C0EA96EA86AA69CA69EA6840F01550E2D
:101DC000A76EAA0EA76EA682A6B2FED7A694005052
:101DD000F2120201C66900011200F2CF9AF8F29ED7
:101DE000AA6A9C0EA96EA69CA69EA680A850080171
:101DF0009ABFF28E996F9951AA08D8A46DD00201AA
:101E0000F52D01D003D0080167D00201F2CF9AF876
:101E1000F29EAA6A970EA96EA69CA69EA680A850BE
:101E200008019ABFF28E05018D6FF2CF9AF8F29EEB
:101E3000AA6A980EA96EA69CA69EA680A850080124
:101E40009ABFF28E05018E6F8F6BF2CF9AF8F29ED9
:101E5000AA6A9A0EA96EA69CA69EA680A850080102
:101E60009ABFF28E05018B6FF2CF9AF8F29EAA6AA2
:101E70009B0EA96EA69CA69EA680A85008019ABF9C
:101E8000F28E05018A6F8D51170801E28D6B8E511C
:101E90003B0801E28E6B8A51040801E28A6B8D5384
:101EA00007E18E5305E100017FDF080115D0050130
:101EB0000401EA9BEA9D060E08019A6FFA0E0901D9
:101EC000426F000176DD08019A2FF8D7010E090153
:101ED000416F0001CBDD08010001B0EF60F0F2CFEF
:101EE0009CF8F29EAA6A940EA96EA69CA69EA68055
:101EF000A85008019CBFF28E996F010E0101CA6FB4
:101F0000020E08019A6F9A51050822E3036A9A515A
:101F1000C90FE96E010E0320EA6E010E9A5D016E93
:101F200099C800F0015204E0D8900032012EFCD78D
:101F30000050010BEF6E993D09D0036A9A51C90F09
:101F4000E96E010E0320EA6E010EEF6E9A2BDBD7CD
:101F5000993D19D01E0E9B6FF250006EF29EAA6A38
:101F6000940EA96E9BC8A8FFA69CA69EA6840F01EE
:101F7000550EA76EAA0EA76EA682A6B2FED7A6948D
:101F80000050F21208010001C3EF61F0010E0901D7
:101F90003F5DFC0F2DE2040F0001FAEF0FF0800E01
:101FA00009013E25FF0F406F416F00015FDD090110
:101FB0001FD0C00E09013E25FF0F406F416F000189
:101FC00055DD090115D0940E09013E25FF0F406F24
:101FD000416F00014BDD09010BD0D40E09013E25F4
:101FE000FF0F406F416F000141DD090101D0090180
:101FF00000011200F2CF0DF0F29EE824F76AF736E6
:10200000190FF66E200EF7220A00F550FA6E08003E
:10201000F5500DBEF28EF96E9E1FB21FC61FDA1F5D
:102020001C8009014739486F0F0E481748C949F904
:102030000001D3DC100E006E002EFED70000090157
:1020400047510F0B486F496F0001C7DC12000900B0
:10205000F5520CE0F6CF30F9F7CF31F9F5CF47F96B
:10206000DFDF30C9F6FF31C9F7FFF1D712000401F5
:102070007051030836E16D530DE16E2D0BD06F5199
:10208000020808E10A0E0901426F000192DC1C9E61
:1020900026D004016D530EE16E5102080BE16F2D45
:1020A00009D0712B1C8E0A0E0901426F000181DCE0
:1020B00016D004016D2D0ED06E530CE16F51020845
:1020C00009E1712B1C8E0A0E0901426F000171DCBF
:1020D00006D004010A0E0901426F00016ADC06D035
:1020E00004010A0E0901426F000163DC4BEF62F04C
:1020F00004016C916C936C95706B000112000901E6
:10210000AF51D8B471D0006EB351D8B46DD00026A1
:1021100004E3810E002668E204D07F0E005E64E3D3
:1021200063E0B0C9B7F9B451B71BB08FB48FB251E7
:10213000B603F4CFB9F9B151B503F4CF03F0F3CF3F
:10214000B8F9B603F350B927F450B823000E0322B0
:10215000B251B503F350B927F450B823000E026A08
:1021600003220222B051B603F350B827F4500322E1
:10217000000E0222B051B503F3500326F4500222A0
:10218000000E016A0122B251B403F350B827F45093
:102190000322000E02220122B151B403F3500326A0
:1021A000F4500222000E0122B051B403F350022673
:1021B000F4500122002A01BE05D0B837033602369A
:1021C00001360006000EB8AF0AD0032A022201220F
:1021D000015005E1025003E1035001E1002AB7BFBD
:1021E000018EB7AF019E04D0006A016A026A036AD9
:1021F000000112008E0E006E0901AF51005EB0C9E1
:1022000002F0B1C901F0028E005209E0D8900252EA
:1022100002E1015204E002320132002EF7D7B0AFE2
:1022200005D0011E021E012AD8B4022A00011200A4
:102230000401465306E14551310803E3036A000EE9
:1022400003D046C403F04551976F03C098F4485338
:1022500006E14751310803E3036A000E03D048C486
:1022600003F04751996F03C09AF44A5306E149516C
:10227000310803E3036A000E03D04AC403F0495156
:102280009B6F03C09CF456C48EF455C48DF454C4A3
:102290008CF453C48BF452C492F451C491F450C4DE
:1022A00090F44FC48FF44EC496F44DC495F44CC4CE
:1022B00094F44BC493F498C49EF497C49DF49AC4C8
:1022C000A0F499C49FF49CC4A2F49BC4A1F44EC48E
:1022D000B2F94DC4B1F94CC4B0F94BC4AFF9000127
:1022E00089DF02C0DBF201C0DAF252C4B2F951C494
:1022F000B1F950C4B0F94FC4AFF97CDF02C0DDF2D0
:1023000001C0DCF256C4B2F955C4B1F954C4B0F9F5
:1023100053C4AFF96FDF02C0DFF201C0DEF2BBEFE2
:1023200012F004015753D8B42AD1576B0801996BA6
:1023300099510208D8A07FD0D8909935036A390FF7
:10234000E96E040E0320EA6EECCFA3F8ED52EFCF56
:10235000A2F8A3C8D9F8A2C8D8F800011EDC03C0AF
:10236000B2F902C0B1F901C0B0F900C0AFF9290E4D
:102370000901B66F5C0EB56F1F0EB46F810EB36F9F
:102380000001BDDE03C0A5F802C0A4F801C0A3F897
:1023900000C0A2F803C0DFF802C0DEF801C0DDF81B
:1023A00000C0DCF80801E36BC00EE26F7F0EE16F46
:1023B000880EE06F00010CDC03C09DF802C09CF8A1
:1023C00001C09BF800C09AF8D89008019935036ABB
:1023D000450FE96E040E0320EA6E9DC8B2F99CC851
:1023E000B1F99BC8B0F99AC8AFF9330E0901B66FBD
:1023F000B56F430EB46F870EB36F000180DE03C06C
:10240000B2F902C0B1F901C0B0F900C0AFF9F2DE13
:1024100002C0ECFFED5201C0EFFFD89008019935E2
:10242000036A390FE96E040E0320EA6EEC6AED527E
:10243000EF6A992B7DD7030E996F99510508D8A0A3
:1024400098D0D8909935036A390FE96E040E0320AD
:10245000EA6EECCFA3F8ED52EFCFA2F8A3C8D9F8FB
:10246000A2C8D8F80001CDEC0DF003C0B2F902C04B
:10247000B1F901C0B0F900C0AFF90901B66BB56B95
:10248000200EB46F810EB36F000139DE03C0A5F8D2
:1024900002C0A4F801C0A3F800C0A2F803C0DFF88E
:1024A00002C0DEF801C0DDF800C0DCF80801E36B13
:1024B000C00EE26F7F0EE16F880EE06F0001E8EC66
:1024C0000DF003C0A1F802C0A0F801C09FF800C041
:1024D0009EF8030E0801995D040DF350036A4B0F3B
:1024E000E96E040E0320EA6EA1C8DFF8A0C8DEF88A
:1024F0009FC8DDF89EC8DCF8FC0EE36FA90EE26F02
:10250000710EE16F7A0EE06F0001E8EC0DF003C090
:10251000A7F802C0A6F801C0A5F800C0A4F803C03F
:10252000B2F902C0B1F901C0B0F900C0AFF90A0EAA
:102530000901B66FD70EB56F230EB46F7E0EB36F61
:102540000001DDDD00C0EFFF01C0ECFF02C0ECFFC9
:1025500003C0ECFFD89008019935036A390FE96E82
:10256000040E0320EA6E030EEC6EED52EF68992B19
:1025700064D700015DD6000E016E04D00401010E87
:10258000016E00011200040135534EE0985105011F
:10259000535D1BE307E152510401975DD8A002D0BF
:1025A000050113D004019A510501555D0EE308E1C0
:1025B00054510401995DD8A002D0050106D005014F
:1025C000010E04017A6F2FD005014D510401985D71
:1025D00008E315E1975105014C5DD8B002D0040124
:1025E0000ED005014F5104019A5D0CE308E19951A9
:1025F00005014E5DD8A002D0040104D00401020EF2
:102600007A6F11D07A2D01D003D07A5102080AE1F5
:102610007E2D08D0762D06D0775304E17E6B806B3B
:102620007F6B786B7A6B67D098510501535D08E337
:1026300022E152510401975DD8B002D005011BD0B0
:1026400004019A510501555D08E315E15451040157
:10265000995DD8B002D005010ED004019C5105014E
:10266000575D0EE308E1565104019B5DD8A002D0EE
:10267000050106D00501010E04017A6F3CD0050169
:102680004D510401985D08E322E1975105014C5D2D
:10269000D8B002D004011BD005014F5104019A5D4E
:1026A00008E315E1995105014E5DD8B002D004014F
:1026B0000ED00501515104019C5D0CE308E19B51D2
:1026C0000501505DD8A002D0040104D00401020E1F
:1026D0007A6F11D07A2D01D003D07A5102080AE125
:1026E0007E2D08D0762D06D0775304E17E6B806B6B
:1026F0007F6B786B7A6B000112000900F5520DE0D8
:10270000F6CF99F8F7CF9AF8F5509EA8FED7AD6EA0
:1027100099C8F6FF9AC8F7FFF0D71200010E090119
:10272000416F000136EC0DF0010E09013E6F3F6F65
:1027300000012CDC7E0EF66E160EF76E88DC010EA4
:1027400009013E6F020E3F6F000120DC8A0EF66E1B
:10275000160EF76E7CDC0C0E0801996FFA0E09015B
:10276000426F0001D9EC0CF00801992FF7D70C0E3D
:10277000996FFA0E0901426F0001D9EC0CF00801C3
:10278000992FF7D70C0E996FFA0E0901426F0001CD
:10279000D9EC0CF00801992FF7D70C0E996FFA0EAF
:1027A0000901426F0001D9EC0CF00801992FF7D70D
:1027B0000C0E996FFA0E0901426F0001D9EC0CF072
:1027C0000801992FF7D7960EF66E160EF76E0001D8
:1027D00094DF040E0801996FFA0E0901426F00019F
:1027E000D9EC0CF00801992FF7D79A0EF66E160E59
:1027F000F76E000182DF040E0801996FFA0E0901DD
:10280000426F0001D9EC0CF00801992FF7D79E0E0A
:10281000F66E160EF76E000170DF040E0801996F58
:10282000FA0E0901426F0001D9EC0CF00801992F52
:10283000F7D7AA0EF66E160EF76E00015EDF040ED5
:102840000801996FFA0E0901426F0001D9EC0CF0F2
:102850000801992FF7D7BE0EF66E160EF76E00011F
:102860004CDF0C0E0801996FFA0E0901426F00014E
:10287000D9EC0CF00801992FF7D7010E0901416F2F
:10288000000136EC0DF0010E09013E6F3F6F0001B3
:10289000C6EC0FF0CC0EF66E160EF76E27EC10F0AD
:1028A000060E0801996FFA0E0901426F0001D9EC7A
:1028B0000CF00801992FF7D7010E0901416F0001B3
:1028C00036EC0DF0D0EF62F00900F6CF3FF9F7CF0C
:1028D00040F9F5CF47F910EC10F03FC9F6FF40C9B9
:1028E000F7FF09013E2F01D002D00001EDD7000112
:1028F0001200EACF46F9E9CF45F909013FAF08D008
:10290000458F45A9452B3E1F3F1F3E2BD8B43F2B7B
:102910003F39F009416F4127E20F426F320F446F98
:102920003F510F0B422742274427E90F436F4327AC
:1029300043273E390F0B4327442743374437441F6F
:1029400044373E510F0B44274137070E406F0A0EA4
:1029500043074427FDE342074327FDE3410742279E
:10296000FDE340074127FDE3090EEA6E400EE96EE4
:10297000070E4515459DED52451507E145B9EE5247
:1029800045B903D0200E006E21D0E926000EEA22C0
:10299000E950440804E1EA50090801E1458DEF508F
:1029A000006E08E145BD06D045B91ED045B702D03E
:1029B000200E0BD045AF06D02D0E006EED50459D7C
:1029C000459F04D045874599300E0026EACF3FF950
:1029D000E9CF3EF900C047F9000110EC10F03FC903
:1029E000EAFF3EC9E9FF0901EE5045ADD1D700012C
:1029F00012008A8A8A98010E0401796F0801E36B3C
:102A00000501605305E15F510801E35D0FE2050137
:102A1000050E0801E46FC60E0901426F0001D9ECF2
:102A20000CF00801E42FF7D7E32BEAD78A88410E90
:102A30000401A96F000112000901302D03D0620EBC
:102A4000336F19D03051020803E16C0E336F13D08D
:102A50003051030803E1760E336F0DD03051040876
:102A600003E1800E336F07D03051050803E18A0E71
:102A7000336F01D024D0346B3451090819E3036A51
:102A800034513125E96E32510320EA6E3451332539
:102A9000376FF2CF38F9F29EAA6A37C9A9FFA69C10
:102AA000A69EA680A85038BFF28EEF6E342BE4D7D6
:102AB0000A0E3125E96E000E3221EA6EEF6A00013E
:102AC00012000900F6CF35F9F7CF36F9F5509EA878
:102AD000FED7AD6E35C9F6FF36C9F7FF0901342FB1
:102AE00001D002D00001EDD700011200EF5210E03A
:102AF000EACF35F9E9CF34F9EF509EA8FED7AD6E95
:102B000035C9EAFF34C9E9FFE92AD8B4EA2AEED781
:102B100012009EA8FED7AD6E12000D0E9EA8FED725
:102B2000AD6E0A0E9EA8FED7AD6E020E0901346F7F
:102B3000FA0E426F0001D9EC0CF00901342FF8D7DE
:102B4000120EF66E0C0EF76E0C0E346F0001B9DF2C
:102B500031C9EAFF30C9E9FFC9DF220E9EA8FED7BE
:102B6000AD6E0D0E9EA8FED7AD6E040E0901346F3A
:102B7000FA0E426F0001D9EC0CF00901342FF8D79E
:102B800033C9EAFF32C9E9FF0001B0DF0D0E9EA88C
:102B9000FED7AD6E0A0E9EA8FED7AD6E1A0EB9DF37
:102BA0001C0E0901346FFA0E426F0001D9EC0CF0D3
:102BB0000901342FF8D7010E416F000136EC0DF0FA
:102BC0001200010E0801E56FE55105082EE3036AC6
:102BD000E551C90FE96E010E0320EA6EEF5201E1E3
:102BE00022D0E5C830F9010E0901326FB30E316F02
:102BF000000122DF0101B35315E0B33D01D012D033
:102C00009D9C9D90010E0901316FB30E306FE4C899
:102C100033F9E3C832F9000180DF9D8C9D80C00E3E
:102C2000F21201010801E52BCFD700011200F2CF0B
:102C3000BCF8F29EAA6A9C0EA96EA69CA69EA680CF
:102C4000A8500801BCBFF28E996F9951AA08D8A468
:102C500069D00201F52D01D003D0080163D0020133
:102C600005018D5308E18E5306E10001D4EC0EF00E
:102C7000080158D005010401EA9BEA8D05018B5338
:102C800038E104017A5333E17B5331E11C860001C2
:102C9000B0DE010E0401796F786F410EA96F020159
:102CA000882D24D09D9C9D90080EEA6E9A0EE96EA8
:102CB000F2CFBCF8F29E220E016EF76A000E000100
:102CC000E7EC00F00A000900F5CFEEFF012EFBD77C
:102CD0000801BCBFF28E080EE46F9A0EE36F00018C
:102CE00070DF9D8C9D80C00EF2120201040107D09E
:102CF00005011C960401796B786B610EA96F040EB7
:102D00000801BC6FFA0E0901426F0001D9EC0CF00A
:102D10000801BC2FF7D7010E0901416F000136EC05
:102D20000DF0080100013AEF63F00201C651050100
:102D30008E5DD8B46DD0F250006EF29EAA6A970EE6
:102D4000A96E8DC5A8FFA69CA69EA6840F01550E50
:102D5000A76EAA0EA76EA682A6B2FED7A6940050B2
:102D6000F212F2CF00F0F29EAA6A980EA96E8EC5FA
:102D7000A8FFA69CA69EA684550EA76EAA0EA76EB7
:102D8000A682A6B2FED7A6940050F212F2CF00F0AF
:102D9000F29EAA6A9A0EA96E8BC5A8FFA69CA69E53
:102DA000A684550EA76EAA0EA76EA682A6B2FED75F
:102DB000A6940050F212F2CF00F0F29EAA6A9B0E87
:102DC000A96E8AC5A8FFA69CA69EA684550EA76ECE
:102DD000AA0EA76EA682A6B2FED7A6940050F21243
:102DE000F2CF00F0F29EAA6A9C0EA96EAA0EA86EFF
:102DF000A69CA69EA684550EA76EAA0EA76EA682B6
:102E0000A6B2FED7A6940050F2128EC5C6F20501F6
:102E100000015FEF63F008019C6B9C6B9C51040800
:102E2000D8A00AD105018A51040801E206D18A51CD
:102E3000040DF350200F0801A16FF2CFE3F8F29ECA
:102E4000AA6AA1C8A9FFA69CA69EA680A850E3BF17
:102E5000F28E9D6F010EA125E36FF2CFE4F8F29E92
:102E6000AA6AE3C8A9FFA69CA69EA680A850E4BFB4
:102E7000F28E9E6F020EA125E36FF2CFE4F8F29E70
:102E8000AA6AE3C8A9FFA69CA69EA680A850E4BF94
:102E9000F28E9F6F030EA125E36FF2CFE4F8F29E4E
:102EA000AA6AE3C8A9FFA69CA69EA680A850E4BF74
:102EB000F28EA06F9D51170801E29D6B9E513B0859
:102EC00001E29E6B9F51170801E29F6BA0513B08E6
:102ED00001E2A06B9D530BE19E5309E19F5307E173
:102EE000A05305E105018A2B08019C2B97D705010A
:102EF0008B6B9DC88DF59EC88EF58F6B0401EA9B88
:102F0000EA8D0201C669F250006EF29EAA6A970E1F
:102F1000A96E9DC8A8FFA69CA69EA6840F01550E6B
:102F2000A76EAA0EA76EA682A6B2FED7A6940050E0
:102F3000F212F2CF00F0F29EAA6A980EA96E9EC815
:102F4000A8FFA69CA69EA684550EA76EAA0EA76EE5
:102F5000A682A6B2FED7A6940050F212F2CF00F0DD
:102F6000F29EAA6A9A0EA96EA86AA69CA69EA6843C
:102F7000550EA76EAA0EA76EA682A6B2FED7A6947D
:102F80000050F212F2CF00F0F29EAA6A9B0EA96ED8
:102F90008AC5A8FFA69CA69EA684550EA76EAA0E5B
:102FA000A76EA682A6B2FED7A6940050F212F2CF68
:102FB00000F0F29EAA6A9C0EA96EAA0EA86EA69CAC
:102FC000A69EA684550EA76EAA0EA76EA682A6B2CE
:102FD000FED7A6940050F2129EC8C6F29D9C9D900A
:102FE00004017A5322E17B5320E11C86000101DDBC
:102FF000010E0401796F786F410EA96F0201882DCF
:1030000013D0010EEA6ED00EE96EE26A1E0EE16E7A
:10301000E752E6CFEEFFFCE1010E0801E46FD00EAF
:10302000E36F0001CEDD020104019D8C9D80C00E86
:10303000F212E9D00801F2D605010401EA9BEA9DEB
:103040000001D4EC0EF00201F72D65D005018A6B6A
:10305000010E0901416F000136EC0DF0010E09016E
:103060003E6F3F6F0001C6EC0FF0100EF66E180EAB
:10307000F76E27EC10F0010E09013E6F020E3F6F54
:103080000001C6EC0FF0220EF66E180EF76E27EC5C
:1030900010F00201882D29D09D9C9D90080EEA6EAB
:1030A000A20EE96EF2CFE3F8F29E1D0E016EF76AF2
:1030B000000E0001ACEC00F00A000900F5CFEEFFB5
:1030C000012EFBD70801E3BFF28E010E0901316F1B
:1030D000700E306F080E336FA20E326F00011DDDCF
:1030E0009D8C9D80C00EF2120201060E0801E36F56
:1030F000FA0E0901426F0001D9EC0CF00801E32F30
:10310000F7D7010E0901416F000136EC0DF00801FF
:1031100084D678D00201F56B1C96F250006EF29EB8
:10312000AA6A950EA96EA86AA69CA69EA6840F01FF
:10313000550EA76EAA0EA76EA682A6B2FED7A694BB
:103140000050F212010E0901416F000136EC0DF042
:10315000010E09013E6F3F6F0001C6EC0FF0340E07
:10316000F66E180EF76E27EC10F0010E09013E6F97
:10317000020E3F6F0001C6EC0FF0460EF66E180E01
:10318000F76E27EC10F00201882D29D09D9C9D90B0
:10319000080EEA6EBF0EE96EF2CFE3F8F29E240E3F
:1031A000016EF76A000E0001C8EC00F00A00090089
:1031B000F5CFEEFF012EFBD70801E3BFF28E010E23
:1031C0000901316F700E306F080E336FBF0E326F12
:1031D0000001A3DC9D8C9D80C00EF2120201080E3E
:1031E0000801E36FFA0E0901426F0001D9EC0CF0FF
:1031F0000801E32FF7D7010E0901416F000136ECFA
:103200000DF008010401000112008A888A9A040165
:10321000796B040E0801D86FFA0E0901426F0001A4
:10322000D9EC0CF00801D82FF7D7040ED86FFA0E9E
:103230000901426F0001D9EC0CF00801D82FF7D733
:10324000040ED86FFA0E0901426F0001D9EC0CF0A0
:103250000801D82FF7D7040ED86FFA0E0901426F74
:103260000001D9EC0CF00801D82FF7D7610E04014A
:10327000A96F7B2D01D001D08A8A000112000901BB
:103280002351016A225D03E222C900F00CD0006ADA
:10329000080E246F223700362351005CD8B0006E30
:1032A0000136242FF7D7000112000401EABF82D0B3
:1032B000EABD08D0EABB05D005018A6B0001ABDD91
:1032C000040178D0EAAB76D0EA9BEA9D05018B53E6
:1032D00061E18A51040DF350200F0801996F020E2D
:1032E00099259C6FF2CF9DF8F29EAA6A9CC8A9FF0F
:1032F000A69CA69EA680A8509DBFF28E9A6F030E34
:1033000099259C6FF2CF9EF8F29EAA6A9CC8A9FFED
:10331000A69CA69EA680A8509EBFF28E9B6F9A5137
:10332000170801E29A6B9B513B0801E29B6B010E6F
:1033300005018B6F9AC88DF59BC88EF58F6B0401C4
:10334000EA9BEA8D0201C6699D9C9D901C96000136
:103350005CDF0401796B786B610EA96F0201882D27
:1033600013D0010EEA6ED00EE96EE26A3E0EE16EF7
:10337000E752E6CFEEFFFCE1010E0801E46FD00E4C
:10338000E36F00011EDC02019D8C9D80C00EF212D5
:1033900010D00501010E8A2508019D6FE8CF22F9A2
:1033A000050E0901236F00016ADF00C08AF533DDD5
:1033B0000201040100016AEF63F004013553D8B43F
:1033C0008DD075C4D9F874C4D8F80001CDEC0DF0D7
:1033D0008EC4DBF88DC4DAF88CC4D9F88BC4D8F865
:1033E00003C0DFF802C0DEF801C0DDF800C0DCF881
:1033F00097EC0EF029E375C4D9F874C4D8F8CDEC75
:103400000DF092C4DBF891C4DAF890C4D9F88FC4F7
:10341000D8F803C0DFF802C0DEF801C0DDF800C054
:10342000DCF897EC0EF010E304017C530BE17D53C4
:1034300009E17B5307E1792D05D07D6B010E7C6F8F
:10344000826B816F4AD0000159C5D9F858C5D8F8A8
:10345000CDEC0DF003C0DBF802C0DAF801C0D9F8FA
:1034600000C0D8F88EC4DFF88DC4DEF88CC4DDF857
:103470008BC4DCF897EC0EF019E25BC5D9F85AC59D
:10348000D8F8CDEC0DF003C0DBF802C0DAF801C0CB
:10349000D9F800C0D8F892C4DFF891C4DEF890C41F
:1034A000DDF88FC4DCF897EC0EF005E3020E0401A2
:1034B0007B6F13D0000104017B5304E17D6B7C6BB7
:1034C000826B816B7B51020808E10501482D01D018
:1034D00002D0040102D004017B6BBED075C4D9F8C0
:1034E00074C4D8F80001CDEC0DF08EC4DBF88DC4A7
:1034F000DAF88CC4D9F88BC4D8F803C0DFF802C05E
:10350000DEF801C0DDF800C0DCF897EC0EF042E315
:1035100075C4D9F874C4D8F8CDEC0DF092C4DBF8BA
:1035200091C4DAF890C4D9F88FC4D8F803C0DFF892
:1035300002C0DEF801C0DDF800C0DCF897EC0EF048
:1035400029E375C4D9F874C4D8F8CDEC0DF096C44D
:10355000DBF895C4DAF894C4D9F893C4D8F803C05A
:10356000DFF802C0DEF801C0DDF800C0DCF897EC3F
:103570000EF010E304017C530BE17D5309E17B5312
:1035800007E1792D05D07D6B010E7C6F826B816F19
:1035900063D0000159C5D9F858C5D8F8CDEC0DF065
:1035A00003C0DBF802C0DAF801C0D9F800C0D8F8CF
:1035B0008EC4DFF88DC4DEF88CC4DDF88BC4DCF873
:1035C00097EC0EF037E35BC5D9F85AC5D8F8CDECC7
:1035D0000DF003C0DBF802C0DAF801C0D9F800C072
:1035E000D8F892C4DFF891C4DEF890C4DDF88FC437
:1035F000DCF897EC0EF01EE35DC5D9F85CC5D8F891
:10360000CDEC0DF003C0DBF802C0DAF801C0D9F848
:1036100000C0D8F896C4DFF895C4DEF894C4DDF88D
:1036200093C4DCF897EC0EF005E3020E04017B6F07
:1036300013D0000104017B5304E17D6B7C6B826B32
:10364000816B7B51020808E10501482D01D002D0B1
:10365000040102D004017B6B000179EF63F0800E5E
:10366000D8A202D00801E11B0801E66BE76BDDC8B8
:10367000E5F8E151E51BDC51D8B4DFD0E46F006E12
:10368000E051D8B4E3D0E45FD8B483D03EE3E1C8DE
:10369000EAF8EA8FE2C8E9F8E3C8E8F8E76BD890FF
:1036A000EA33E933E833E733E42FF8D7E5AF03D063
:1036B000E681E0D0E691E491E689080EEA6EDF0E3D
:1036C000E96EEBD0E699E5BF0AD0E4A113D0EA3366
:1036D000E933E833E733002AD8B4C7D00BD0EABFC8
:1036E0000CD0D890E737E837E937EA370006D8B486
:1036F000BCD0F5D7E68D6DD0E69DDDC8E5F8DDAF31
:1037000002D0EA8FABD0EA9FA9D0E0C8E4F8E0C8C5
:1037100000F0DC51E45FDDC8EAF8EA8FDEC8E9F8C2
:10372000DFC8E8F8E76BD890EA33E933E833E733EA
:10373000E42FF8D7E5AF03D0E6839CD0E693E4917D
:10374000E68B080EEA6EE30EE96EA7D0E69BE5BFB6
:103750000AD0E4A113D0EA33E933E833E733002A8F
:10376000D8B483D00BD0EABF0CD0D890E737E83775
:10377000E937EA370006D8B478D0F5D7E68F29D0F4
:10378000E69FE1C8E5F8E1AF02D0EA8F67D0EA9F93
:1037900065D0E1C8EAF8EA8FE2C8E9F8E3C8E8F8DA
:1037A000E5AF04D0EA9FE68565D0E695E76BE49146
:1037B000080EEA6EDF0EE96E70D0E5BF1CD0DDC8E2
:1037C000E5F8E4A106D0EA33E933E833E733002A29
:1037D0004CE0E7AF0BD0E82B09E1E92B07E1EA2B3E
:1037E00005E1EA33E933E833002A3FE0E6BD84D758
:1037F000E6BFC6D71CD0800EEA1BEAAF04D03AD091
:10380000E1C8E5F80AD0DDC8E5F8EA5306E1E95376
:1038100004E1E85302E1006A21D0EABF08D0D89061
:10382000E737E837E937EA37002EF7D71ED0E5AF9C
:1038300002D0EA8F13D0EA9F11D0E0C800F0E1C8AF
:10384000EAF8E2C8E9F8E3C8E8F808D0DCC800F014
:10385000DDC8EAF8DEC8E9F8DFC8E8F8EAC801F030
:10386000E9C802F0E8C803F034D0006A016A026ACD
:10387000036A2FD0E76BE81FE91FEA1FE71FE72B5A
:1038800005E1E82B03E1E92B01E1EA2BE6B112D7D0
:10389000E6B354D7E6B589D7B3D7EF50E82705E3A9
:1038A000E92B03E1EA2BD8B4E481ED52EF50E9278C
:1038B00003E3EA2BD8B4E481ED52EF50EFBE01D020
:1038C000800AEA27D8B0E481E6B9FCD6E6BB3ED749
:1038D00074D7000112000401EAAD8DD08DC590F5BA
:1038E0008EC591F58FC592F58BC593F58AC594F574
:1038F000EA8FF250006EF29EAA6A9E0EA96E90C5E3
:10390000A8FFA69CA69EA6840F01550EA76EAA0E20
:10391000A76EA682A6B2FED7A6940050F212F2CFEE
:1039200000F0F29EAA6A9F0EA96E91C5A8FFA69C00
:10393000A69EA684550EA76EAA0EA76EA682A6B254
:10394000FED7A6940050F212F2CF00F0F29EAA6ABF
:10395000A00EA96E92C5A8FFA69CA69EA684550E91
:10396000A76EAA0EA76EA682A6B2FED7A694005096
:10397000F212F2CF00F0F29EAA6AA10EA96E93C5D0
:10398000A8FFA69CA69EA684550EA76EAA0EA76E9B
:10399000A682A6B2FED7A6940050F212F2CF00F093
:1039A000F29EAA6AA20EA96E94C5A8FFA69CA69E26
:1039B000A684550EA76EAA0EA76EA682A6B2FED743
:1039C000A6940050F212F2CF00F0F29EAA6A9D0E69
:1039D000A96EBB0EA86EA69CA69EA684550EA76EC9
:1039E000AA0EA76EA682A6B2FED7A6940050F21227
:1039F0000401EA9DEA9B00011200DBC2D9F8DAC299
:103A0000D8F8CDEC0DF003C09CF802C09BF801C0C3
:103A10009AF800C099F8DDC2D9F8DCC2D8F8CDEC2C
:103A20000DF003C0A0F802C09FF801C09EF800C0CE
:103A30009DF8DFC2D9F8DEC2D8F8CDEC0DF003C096
:103A4000A4F802C0A3F801C0A2F800C0A1F89CC865
:103A5000A8F89BC8A7F89AC8A6F899C8A5F8A8C856
:103A6000DBF8A7C8DAF8A6C8D9F8A5C8D8F8A0C85E
:103A7000DFF89FC8DEF89EC8DDF89DC8DCF897EC3B
:103A80000EF008E3A0C8A8F89FC8A7F89EC8A6F83B
:103A90009DC8A5F8A8C8DBF8A7C8DAF8A6C8D9F861
:103AA000A5C8D8F8A4C8DFF8A3C8DEF8A2C8DDF816
:103AB000A1C8DCF897EC0EF008E3A4C8A8F8A3C8E6
:103AC000A7F8A2C8A6F8A1C8A5F89CC8ACF89BC8DE
:103AD000ABF89AC8AAF899C8A9F8A0C8DBF89FC89B
:103AE000DAF89EC8D9F89DC8D8F8ACC8DFF8ABC8DA
:103AF000DEF8AAC8DDF8A9C8DCF897EC0EF008E3F8
:103B0000A0C8ACF89FC8ABF89EC8AAF89DC8A9F891
:103B1000A4C8DBF8A3C8DAF8A2C8D9F8A1C8D8F8B5
:103B2000ACC8DFF8ABC8DEF8AAC8DDF8A9C8DCF875
:103B300097EC0EF008E3A4C8ACF8A3C8ABF8A2C891
:103B4000AAF8A1C8A9F8D8929CC8DFF89BC8DEF8EB
:103B50009AC8DDF899C8DCF8A0C8E3F89FC8E2F875
:103B60009EC8E1F89DC8E0F87ADD03C0DBF802C02A
:103B7000DAF801C0D9F800C0D8F8D89203C0DFF84D
:103B800002C0DEF801C0DDF800C0DCF8A4C8E3F82C
:103B9000A3C8E2F8A2C8E1F8A1C8E0F860DD03C05C
:103BA000DBF802C0DAF801C0D9F800C0D8F803C0C9
:103BB000DFF802C0DEF801C0DDF800C0DCF8080163
:103BC000E36BE26B400EE16F800EE06F0001E8EC0A
:103BD0000DF003C0B0F802C0AFF801C0AEF800C0ED
:103BE000ADF8B0C8DBF8AFC8DAF8AEC8D9F8ADC8E0
:103BF000D8F80801DF6BDE6BDD6BDC6B000197EC46
:103C00000EF005E10201EB6B1C9AFCD00001D8829A
:103C1000A8C8DFF8A7C8DEF8A6C8DDF8A5C8DCF894
:103C2000ACC8E3F8ABC8E2F8AAC8E1F8A9C8E0F864
:103C300016DD03C0DBF802C0DAF801C0D9F800C015
:103C4000D8F8DBC8DFF8DAC8DEF8D9C8DDF8D8C89C
:103C5000DCF8B0C8E3F8AFC8E2F8AEC8E1F8ADC828
:103C6000E0F8E8EC0DF003C0DBF802C0DAF801C0C0
:103C7000D9F800C0D8F8DBC8B2F9DAC8B1F9D9C8A8
:103C8000B0F9D8C8AFF90901B66BB56B480EB46F7F
:103C9000850EB36F00017FEC10F003C0B4F802C0D2
:103CA000B3F801C0B2F800C0B1F8F2CFD8F8F29E74
:103CB000AA6A270EA96EA69CA69EA680A8500801F7
:103CC000D8BFF28ED96FF2CFDAF8F29EAA6A260E2A
:103CD000A96EA69CA69EA680A850DABFF28EDB6FC6
:103CE000D9C8B6F8DBC8B5F8B65303E1B5516408D6
:103CF00003E2B66B1E0EB56FB6C8D9F8B5C8D8F8D2
:103D00000001CDEC0DF003C0DBF802C0DAF801C011
:103D1000D9F800C0D8F8B4C8DFF8B3C8DEF8B2C824
:103D2000DDF8B1C8DCF897EC0EF069E38B92010E78
:103D30000201EB6F0401792D60D01CBA5ED01C8AA1
:103D40009D9C9D90000105EC19F00401796B786B46
:103D5000610EA96F0201F52D09D00401EABD02D060
:103D6000020104D00001B7DD1C960201882D40D06D
:103D7000080EEA6EB70EE96EF2CFD8F8F29E210E69
:103D8000016EF76A000E00017AEC00F00A000900EB
:103D9000F5CFEEFF012EFBD70801D8BFF28E080E3B
:103DA000E46FB70EE36F0001E1EC15F00201F52DB1
:103DB0001FD0080EEA6EB70EE96EF2CFD8F8F29E69
:103DC0000D0E016EF76A000E000198EC00F00A007B
:103DD0000900F5CFEEFF012EFBD70801D8BFF28E08
:103DE000080EE46FB70EE36F0001E1EC15F002017D
:103DF0009D8C9D80C00EF212040105D000010201CD
:103E0000EB6B1C9A040100017BEF63F00801BD51CC
:103E1000B608BD6F036ABEC8C1F8BE8FD890BE3366
:103E2000BF33C0330332023201320032BD2FF6D726
:103E3000C1AF0BD0001E011E021E031E002AD8B403
:103E4000012AD8B4022AD8B4032A00019FEF1FF038
:103E5000D8B204D0080EEA6EC50EE96E006A016A97
:103E6000026A036A0801C56BC66BC76BC86BC45195
:103E7000C311C211C1112CE0200EC96FD890BD37FB
:103E8000BE37BF37C037C537C637C737C837C45145
:103E9000C85D08E1C351C75D05E1C251C65D02E1DD
:103EA000C151C55D0FE3C151C55FC251D8A0C23D2C
:103EB000C65FC351D8A0C33DC75FC451D8A0C43D9D
:103EC000C85FD8800036013602360336C92FD6D7F0
:103ED000C5C8EFFFC6C8ECFFC7C8ECFFC8C8ECFFF9
:103EE00000011200E9500801B56FB451B76F1DE031
:103EF000B3C8B2F9B2C8B1F9B1C8B0F9B0C8AFF936
:103F00000901B66BB56B200EB46F820EB36F000162
:103F10007FEC10F003C0B3F802C0B2F801C0B1F8F2
:103F200000C0B0F80801B72FE3D7B3C8C0F8B2C8D3
:103F3000BFF8B1C8BEF8B0C8BDF8000167D703C06C
:103F4000B3F802C0B2F801C0B1F800C0B0F808017F
:103F5000B3AF0DD0B507B58BB01FB11FB21FB31FE4
:103F6000B02BD8B4B12BD8B4B22BD8B4B32B3B0EF2
:103F7000BC6F9A0EBB6FCA0EBA6FB96B0A0EB76FE1
:103F8000B451D8B4B52BD882080EEA6EB00EE96EE3
:103F9000B3C8C0F8B2C8BFF8B1C8BEF8B0C8BDF861
:103FA000BCC8C4F8BBC8C3F8BAC8C2F8B9C8C1F81D
:103FB00000014EDF0150005213E10801B429B75D42
:103FC000D8A402D000010CD0B5510DE00F0BB75DA5
:103FD00001E047E2B5BF45D0B5BD05D0200E3AD0CF
:103FE000200E0801B517B5AB10D0B59BB451D8A4BD
:103FF000B5070050B56F2D0E0901476F000110EC99
:1040000010F00801B551006EB56BB451B75D0EE10B
:104010000050B56F2E0E0901476F000110EC10F033
:104020000801B551006E200EB517000E300EB5AB6D
:1040300011D0B59BB451D8A4B5070050B56F2D0E63
:104040000901476F000110EC10F00801B551006E36
:10405000B56B300E002600C047F9000110EC10F0DF
:104060000801D892BCC8C0F8BBC8BFF8BAC8BEF82F
:10407000B9C8BDF8C46BC36BC26B0A0EC16F000137
:10408000E7DE03C0BCF802C0BBF801C0BAF800C04C
:10409000B9F80801B72F77D700011200EACF38F935
:1040A000E9CF37F909013139F009336F3327E20FCE
:1040B000346F320F366F31510F0B342734273627C8
:1040C000E90F356F3527352730390F0B3527362760
:1040D00035373637361F363730510F0B36273337E3
:1040E000070E326F0A0E35073627FDE334073527F2
:1040F000FDE333073427FDE332073327FDE3090EE1
:10410000EA6E320EE96E070E3715379DE926000E6E
:10411000EA22E950360804E1EA50090801E1378D46
:10412000EF50006E08E137BD06D037B916D037B76B
:1041300002D0200E03D037873799300E0026EACF01
:1041400031F9E9CF30F900C047F9000110EC10F067
:1041500031C9EAFF30C9E9FF0901EE5037ADD9D7BF
:104160000001120090C58DF591C58EF592C58FF5B1
:1041700093C58BF594C58AF50401EA9BEA8DEA9F05
:1041800005018B5302E1010E01D0000E1C96E8B030
:104190001C86F250006EF29EAA6A9D0EA96EA86A55
:1041A000A69CA69EA6840F01550EA76EAA0EA76E0A
:1041B000A682A6B2FED7A6940050F212F2CF00F06B
:1041C000F29EAA6A970EA96E8DC5A8FFA69CA69E10
:1041D000A684550EA76EAA0EA76EA682A6B2FED71B
:1041E000A6940050F212F2CF00F0F29EAA6A980E46
:1041F000A96E8EC5A8FFA69CA69EA684550EA76E86
:10420000AA0EA76EA682A6B2FED7A6940050F212FE
:10421000F2CF00F0F29EAA6A990EA96E8FC5A8FF90
:10422000A69CA69EA684550EA76EAA0EA76EA68271
:10423000A6B2FED7A6940050F212F2CF00F0F29E82
:10424000AA6A9A0EA96E8BC5A8FFA69CA69EA684F4
:10425000550EA76EAA0EA76EA682A6B2FED7A6948A
:104260000050F212F2CF00F0F29EAA6A9B0EA96EE5
:104270008AC5A8FFA69CA69EA684550EA76EAA0E68
:10428000A76EA682A6B2FED7A6940050F212F2CF75
:1042900000F0F29EAA6A9C0EA96EAA0EA86EA69CB9
:1042A000A69EA684550EA76EAA0EA76EA682A6B2DB
:1042B000FED7A6940050F2128EC5C6F2000112007D
:1042C000016A026A006A036A0901BC5102E1BB513A
:1042D00018E0100EBD6FD890B937BA3700360336E4
:1042E000BC51035C02E1BB51005C07E3BB51005EC3
:1042F000D8A00306BC51035ED88001360236BD2F1C
:10430000EAD700011200200E09011DA9300E1E6F10
:104310001CC900F01CAF08D0001E002A00C01CF908
:104320002D0E1E6F1D8F1D8101501CC922F9640EB8
:10433000236F00013FEC19F000C01CF9300E01247E
:1043400009011F6F1CC922F90A0E236F00013FECFF
:1043500019F0300E00240901216F300E0124206F66
:104360001EC900F0300E1F5D04E01D831DBF1D85BA
:1043700012D01EC91FF9200E1E6F300E205D04E002
:104380001D811DBF1D8307D0D8A41D8104E11FC955
:1043900020F9200E1F6F1DB505D01DB308D01DB12B
:1043A0000BD00FD01EC947F9000110EC10F01FC947
:1043B00047F9000110EC10F020C947F9000110EC9A
:1043C00010F021C947F9000110EC10F01200200E86
:1043D00008019AA9300E9B6F99C800F099AF08D0D8
:1043E000001E002A00C099F82D0E9B6F9A8F9A81AB
:1043F000015099C822F9640E0901236F00013FECB6
:1044000019F000C099F8300E012408019C6F99C87A
:1044100022F90A0E0901236F00013FEC19F0300E5A
:10442000002408019E6F300E01249D6F9BC800F090
:10443000300E9C5D04E09A839ABF9A8512D09AB59B
:1044400010D09BC89CF89AB304D0300E9D5D04E058
:104450009A819ABF9A8305D0D8A49A81D8B49CC86F
:104460009DF89AB505D09AB308D09AB10BD00FD069
:104470009BC847F9000110EC10F09CC847F90001F7
:1044800010EC10F09DC847F9000110EC10F09EC828
:1044900047F9000110EC10F0120008019D6B9E6BB3
:1044A0009F6B9BC8E9FF9CC8EAFFEF6A036A9D51B6
:1044B0009925E96E9A510320EA6EEF5254E09E511D
:1044C000090851E3036A9D519925E96E9A51032029
:1044D000EA6EEF50220803E19F2B9D2BE7D79F51F7
:1044E00002083FE1036A9D519925E96E9A51032024
:1044F000EA6EEF502B080CE0036A9D519925E96E96
:104500009A510320EA6EEF50390804E19E5302E10C
:104510009D2BCCD7036A9D519925E96E9A510320B2
:10452000EA6EEFCFA0F8A0512F081BE2A051390886
:1045300018E39E519E2B036A9B25016E9C5103221A
:1045400003C0A1F8036A9D519925E96E9A51032091
:10455000EA6EEFCFA2F8A1C8EAFF01C0E9FFA2C846
:10456000EFFF9D2BA3D7036A9E519B25E96E9C51BB
:104570000320EA6EEF6A9E533FE19D6B9E6B9F6B3B
:10458000036A9D519925E96E9A510320EA6EEF5214
:104590002BE09E51090828E3036A9D519925E96E95
:1045A0009A510320EA6EEF50220802E19F2B1AD0A5
:1045B0009F2D18D09E519E2B036A9B25016E9C5106
:1045C000032203C0A1F8036A9D519925E96E9A510F
:1045D0000320EA6EEFCFA2F8A1C8EAFF01C0E9FF0D
:1045E000A2C8EFFF9D2BCCD7036A9E519B25E96E95
:1045F0009C510320EA6EEF6A000166EF6AF0EF5209
:1046000010E0EACF3FF9E9CF3EF9EFCF47F910ECE0
:1046100010F03FC9EAFF3EC9E9FFE92AD8B4EA2A07
:10462000EED7120098C5EAFF97C5E9FF0901C4C992
:10463000EFFFE92AD8B4EA2AEF6A0501972BD8B42C
:10464000982B000112000900F5520CE0F6CFAFF9EB
:10465000F7CFB0F9F5CFC4F9E5DFAFC9F6FFB0C9C0
:10466000F7FFF1D712000801BE51010803E2BE5165
:10467000050801E24FD0036ABE51C90FE96E010E71
:104680000320EA6EBFC8EFFFF2CFC1F8F29EAA6A1C
:10469000940EA96EA69CA69EA680A850C1BFF28EBD
:1046A000C06FC03D02D01E0EC06FBF2D0ED0010ED8
:1046B000BE5D016E010E006E015204E0D89000361E
:1046C000012EFCD70050C0130ED0010EBE5D016E4E
:1046D000010E006E015204E0D8900036012EFCD786
:1046E0000050FF0AC017F250006EF29EAA6A940EA4
:1046F000A96EC0C8A8FFA69CA69EA6840F01550E51
:10470000A76EAA0EA76EA682A6B2FED7A6940050E8
:10471000F2120801000112000900F6CFBCF9F7CF30
:10472000BDF9F5CFC4F97EDFBCC9F6FFBDC9F7FFFF
:104730000901BB2F01D002D00001EED70001120009
:10474000200E0801BFA9300EC06FBEC800F0BEAF7A
:1047500008D0001E002A00C0BEF82D0EC06FBF8F0B
:10476000BF810150BEC822F9640E0901236F000108
:104770003FEC19F000C0BEF8300E01240801C16FF3
:10478000BEC822F90A0E0901236F00013FEC19F09F
:10479000300E00240801C36F300E0124C26FC0C860
:1047A00000F0300EC15D04E0BF83BFBFBF8512D0F3
:1047B000C0C8C1F8200EC06F300EC25D04E0BF81DA
:1047C000BFBFBF8307D0D8A4BF8104E1C1C8C2F86E
:1047D000200EC16FBFB505D0BFB307D0BFB109D0A0
:1047E0000CD0C0C8C4F900011DDFC1C8C4F9000164
:1047F00019DFC2C8C4F9000115DFC3C8C4F900013C
:1048000011DF1200040E08019925E96E000E9A21AD
:10481000EA6E300EEF5C9D6F010E0901416F0001E1
:1048200036EC0DF0010E09013E6F3F6F0001C6EC42
:104830000FF0240EF66E0C0EF76E030E09013E6F9C
:10484000000164EC14F09AC8EAFF99C8E9FFD7DECA
:10485000020E09013E6F010E3F6F0001C6EC0FF022
:104860002A0EF66E0C0EF76E040E09013E6F000163
:1048700064EC14F09CC8EAFF9BC8E9FFC0DE300E70
:10488000F66E0C0EF76E040E09013E6F000164EC2B
:1048900014F09DC81CF9180E09011D6F000133DDCD
:1048A0000C0E0801BE6FFA0E0901426F0001D9EC2F
:1048B0000CF00801BE2FF7D79D51010803E29D516E
:1048C000050819E2080E0501986F9E0E976F380EC5
:1048D000F66E0C0EF76E0001B6DE010E0901316FA7
:1048E000700E306F080E336F9E0E326F00018DEC2C
:1048F00015F080D00801010E9925E96E000E9A216D
:10490000EA6EEF50450838E19D9C9D909DC8BEF829
:10491000010EBF6F0001A7DE080E0501986F9E0E05
:10492000976F540EF66E0C0EF76E050E0901BB6FF5
:104930000001F2DE9DC8BEF8180E0801BF6F00012D
:10494000FFDE5B0EF66E0C0EF76E080E0901BB6FF4
:104950000001E2DE010E0901316F700E306F080EAA
:10496000336F9E0E326F00018DEC15F09D8C9D8093
:10497000C00EF2123FD00801010E9925E96E000E1B
:104980009A21EA6EEF50440836E19D9C9D909DC8A7
:10499000BEF8BF6B000167DE080E0501986F9E0E22
:1049A000976F640EF66E0C0EF76E050E0901BB6F65
:1049B0000001B2DE9DC8BEF8180E0801BF6F0001ED
:1049C000BFDE6B0EF66E0C0EF76E090E0901BB6FA3
:1049D0000001A2DE010E0901316F700E306F080E6A
:1049E000336F9E0E326F00018DEC15F09D8C9D8013
:1049F000C00EF2120801000182EF6AF0B0C9B4F9EA
:104A0000AFC9B3F9B4C903F00901B3C9E9FFB4C927
:104A1000EAFFEF5206E0B32BD8B4B42B0001F2D773
:104A20000901B2C903F0B1C9E9FFB2C9EAFFEF5207
:104A300013E0B1C9E9FFB2C9EAFFEFCFB7F9B4C9D2
:104A4000EAFFB3C9E9FFB7C9EFFFB32BD8B4B42B62
:104A5000B12BD8B4B22BE5D7B3C9E9FFB4C9EAFF8B
:104A6000EF6AAFC901F0B0C902F000011200EACF4D
:104A7000C3F9E9CFC2F90901BC39F009BE6FBE27FD
:104A8000E20FBF6F320FC16FBC510F0BBF27BF27A3
:104A9000C127E90FC06FC027C027BB390F0BC02744
:104AA000C127C037C137C11FC137BB510F0BC12749
:104AB000BE37070EBD6F0A0EC007C127FDE3BF0753
:104AC000C027FDE3BE07BF27FDE3BD07BE27FDE30B
:104AD000090EEA6EBD0EE96E070EC215C29DE926EB
:104AE000000EEA22E950C10804E1EA50090801E198
:104AF000C28DEF50006E08E1C2BD06D0C2B915D01C
:104B0000C2B702D0200E03D0C287C299300E002651
:104B1000EACFBCF9E9CFBBF900C0C4F9000182DDDE
:104B2000BCC9EAFFBBC9E9FF0901EE50C2ADDAD743
:104B30000001120046C433F945C432F948C435F9BE
:104B400047C434F94AC437F949C436F94EC4B2F9F6
:104B50004DC4B1F94CC4B0F94BC4AFF90901B66BFF
:104B6000B56B200EB46F820EB36F00017FEC10F0B6
:104B700003C0B2F902C0B1F901C0B0F900C0AFF989
:104B8000FAEC10F002C039F901C038F952C4B2F998
:104B900051C4B1F950C4B0F94FC4AFF90901B66BB3
:104BA000B56B200EB46F820EB36F00017FEC10F076
:104BB00003C0B2F902C0B1F901C0B0F900C0AFF949
:104BC000FAEC10F002C03BF901C03AF956C4B2F950
:104BD00055C4B1F954C4B0F953C4AFF90901B66B67
:104BE000B56B200EB46F820EB36F00017FEC10F036
:104BF00003C0B2F902C0B1F901C0B0F900C0AFF909
:104C0000FAEC10F002C03DF901C03CF9090130C9CD
:104C1000E9FF31C9EAFFEF6A0401792D0CD031C9EF
:104C2000B0F930C9AFF90901B26B5E0EB16F000186
:104C3000E5DE0BD0040131C9B0F930C9AFF9090183
:104C4000B26B7E0EB16F0001D9DE0D0E09013E6F11
:104C50000A0E3F6F406B31C9B0F930C9AFF9090E88
:104C6000B26F3E0EB16F0001C9DE0201F52D0DD00D
:104C7000090E0501986F410E976F9A0EF66E0B0E96
:104C8000F76E0001E0DC0CD00201090E0501986FFF
:104C9000410E976FA80EF66E0B0EF76E0001D3DC77
:104CA00031C9B0F930C9AFF9090E0901B26F410E2F
:104CB000B16F0001A3DE090E0501986F550E976FC5
:104CC000B80EF66E0B0EF76E0B0E0901BB6F0001EE
:104CD00023DD100EE96E33C9BCF932C9BBF9C7DE5A
:104CE000C60EF66E0B0EF76E070E0901BB6F0001C4
:104CF00013DD100EE96E35C9BCF934C9BBF9B7DE56
:104D0000D00EF66E0B0EF76E070E0901BB6F000199
:104D100003DD100EE96E37C9BCF936C9BBF9A7DE51
:104D2000DA0EF66E0B0EF76E040E0901BB6F000172
:104D3000F3DC31C9B0F930C9AFF9090E0901B26F1E
:104D4000550EB16F00015ADE39C9BAF938C9B9F93F
:104D50000901BC6B0A0EBB6F000160EC21F002C0C0
:104D6000B0F901C0AFF939C9BAF938C9B9F90901BF
:104D7000BC6B0A0EBB6F000160EC21F000C0B1F902
:104D8000090103C0B2F939C9BAF938C9B9F9BC6B1C
:104D90000A0EBB6F000160EC21F000C0B1F90901FF
:104DA00003C0B2F93BC9BAF93AC9B9F9BC6B0A0EEA
:104DB000BB6F000160EC21F002C0B4F901C0B3F98F
:104DC0003BC9BAF93AC9B9F90901BC6B0A0EBB6F04
:104DD000000160EC21F000C0B5F9090103C0B6F98B
:104DE0003BC9BAF93AC9B9F9BC6B0A0EBB6F0001ED
:104DF00060EC21F000C0B5F9090103C0B6F93DC966
:104E0000BAF93CC9B9F9BC6B0A0EBB6F000160EC82
:104E100021F002C0B8F901C0B7F93DC9BAF93CC9DF
:104E2000B9F90901BC6B0A0EBB6F000160EC21F0FF
:104E300009013DC9BAF93CC9B9F9BC6B0A0EBB6F8F
:104E4000000160EC21F000C0B9F903C0BAF9090E05
:104E50000501986F7D0E976FE00EF66E0B0EF76EE4
:104E60000B0E0901BB6F000157DC100EE96EB0C9D3
:104E7000BCF9AFC9BBF9FBDD2E0E0901C46F0001FF
:104E800012EC23F0100EE96EB2C9BCF9B1C9BBF93E
:104E9000EEDDF20EF66E0B0EF76E070E0901BB6F1C
:104EA00000013ADC100EE96EB4C9BCF9B3C9BBF914
:104EB000DEDD2E0E0901C46F000112EC23F0100E8E
:104EC000E96EB6C9BCF9B5C9BBF9D1DD000EF66E05
:104ED0000C0EF76E070E0901BB6F00011DDC100EF2
:104EE000E96EB8C9BCF9B7C9BBF9C1DD2E0E09011D
:104EF000C46F000112EC23F0100EE96EBAC9BCF9C0
:104F0000B9C9BBF9B4DD200E0901C46F000112EC70
:104F100023F0410E0901C46F000112EC23F031C9E6
:104F2000B0F930C9AFF9090E0901B26F7D0EB16F4A
:104F3000000164DDA3EF27F0080E0901316F990E1F
:104F4000306F0001F7D5010E09012F6F2F510508B1
:104F50002EE3036A2F51C90FE96E010E0320EA6E9A
:104F6000EF2C23D02FC930F9010E326FB30E316F01
:104F700000011CEC15F00101B35316E0B33D01D064
:104F800013D09D9C9D90010E0901316FB30E306FBF
:104F9000080E336F990E326F00018DEC15F09D8C69
:104FA0009D80C00EF212010109012F2BCFD7000105
:104FB000EAEF6DF0200E08019DA9300E9E6F9CC88F
:104FC00000F09CAF08D0001E002A00C09CF82D0EF7
:104FD0009E6F9D8F9D8101509CC822F9640E09012E
:104FE000236F00013FEC19F000C09CF8300E012443
:104FF00008019F6F9CC822F90A0E0901236F000166
:105000003FEC19F0300E00240801A16F300E01248E
:10501000A06F9EC800F0300E9F5D04E09D839DBF91
:105020009D8512D09EC89FF8200E9E6F300EA05D09
:1050300004E09D819DBF9D8307D0D8A49D8104E19C
:105040009FC8A0F8200E9F6F9DB505D09DB307D0D7
:105050009DB109D00CD09E519EA8FED7AD6E9F5138
:105060009EA8FED7AD6EA0519EA8FED7AD6EA151F1
:105070009EA8FED7AD6E000192EF28F0760EF66E78
:105080000C0EF76E0C0E0901346F000161EC15F087
:10509000010EEA6E700EE96E76EC15F0220E9EA8F7
:1050A000FED7AD6E0D0E9EA8FED7AD6E040E0801A4
:1050B0009C6FFA0E0901426F0001D9EC0CF0080157
:1050C0009C2FF7D7010EEA6E1E0EE96E000176ECFA
:1050D00015F00D0E9EA8FED7AD6E0A0E9EA8FED747
:1050E000AD6E010E08019B6F9B51050834E39BC810
:1050F00030F9010E0901326FB30E316F00011CEC63
:1051000015F0880EF66E0C0EF76E030E0901346F63
:10511000000161EC15F09BC89CF8180E08019D6F0A
:10512000000148D73A0E9EA8FED7AD6E200E9EA86D
:10513000FED7AD6E010EEA6EB30EE96E76EC15F099
:105140000D0E9EA8FED7AD6E0A0E9EA8FED7AD6EC0
:1051500008019B2BC9D71A0E000189EC15F0100E1F
:1051600008019C6FFA0E0901426F0001D9EC0CF0A6
:1051700008019C2FF7D700018FEF6EF0016603D076
:10518000026602D007D0022A00C0EEFF012EFCD733
:10519000022EFAD7120008019B2D03D0620E9C6FDD
:1051A00019D09B51020803E16C0E9C6F13D09B51E8
:1051B000030803E1760E9C6F0DD09B51040803E1B8
:1051C000800E9C6F07D09B51050803E18A0E9C6FEF
:1051D00001D043D19D6B9D51090825E39D519C252C
:1051E000A36F036A9D519925E96E9A510320EA6ED7
:1051F000EFCFA4F8F250006EF29EAA6AA3C8A9FFEE
:10520000A4C8A8FFA69CA69EA6840F01550EA76E53
:10521000AA0EA76EA682A6B2FED7A6940050F212DE
:1052200008019D2BD8D7010E0901416F000136EC12
:105230000DF0020E09013E6F010E3F6F0001C6EC3A
:105240000FF008019E6B9E51090828E3036A9E51E6
:10525000700FE96E010E0320EA6E620E9E25A56FA7
:10526000F2CFA6F8F29EAA6AA5C8A9FFA69CA69EA0
:10527000A680A850A6BFF28EEF6E036A9E51700FF3
:10528000E96E010E0320EA6EEFCFA3F8A3C847F939
:10529000000110EC10F008019E2BD5D701017A6BAC
:1052A000020E09013E6F010E3F6F0001C6EC0FF0C8
:1052B00008019F6B9F51090828E3036A9F517B0FE8
:1052C000E96E010E0320EA6E6C0E9F25A56FF2CFEA
:1052D000A6F8F29EAA6AA5C8A9FFA69CA69EA680CB
:1052E000A850A6BFF28EEF6E036A9F517B0FE96E46
:1052F000010E0320EA6EEFCFA3F8A3C847F900011F
:1053000010EC10F008019F2BD5D70101856B020E20
:1053100009013E6F010E3F6F0001C6EC0FF008015E
:10532000A06BA051090828E3036AA051860FE96E1B
:10533000010E0320EA6E760EA025A56FF2CFA6F827
:10534000F29EAA6AA5C8A9FFA69CA69EA680A85000
:10535000A6BFF28EEF6E036AA051860FE96E010EB2
:105360000320EA6EEFCFA3F8A3C847F9000110ECC1
:1053700010F00801A02BD5D70101906B020E090196
:105380003E6F010E3F6F0001C6EC0FF00801A16BEC
:10539000A151090828E3036AA151910FE96E010E9A
:1053A0000320EA6E800EA125A56FF2CFA6F8F29E2B
:1053B000AA6AA5C8A9FFA69CA69EA680A850A6BFBB
:1053C000F28EEF6E036AA151910FE96E010E032078
:1053D000EA6EEFCFA3F8A3C847F9000110EC10F074
:1053E0000801A12BD5D701019B6B020E09013E6F6D
:1053F000010E3F6F0001C6EC0FF00801A26BA25135
:10540000090828E3036AA2519C0FE96E010E0320EC
:10541000EA6E8A0EA225A56FF2CFA6F8F29EAA6ABE
:10542000A5C8A9FFA69CA69EA680A850A6BFF28EDE
:10543000EF6E036AA2519C0FE96E010E0320EA6E23
:10544000EFCFA3F8A3C847F9000110EC10F0080152
:10545000A22BD5D70101A66B08010001120005019E
:1054600099510201F85DD8B4C7D0010E0901416F0E
:10547000000136EC0DF0010E09013E6F3F6F000197
:10548000C6EC0FF0010E0201F85DEE0FD8B095D01A
:10549000120F0001FFEF2AF0940EF66E0C0EF76E5D
:1054A00027EC10F0020189D0A40EF66E0C0EF76EF8
:1054B00027EC10F0020181D0B40EF66E0C0EF76EE0
:1054C00027EC10F0020179D0C60EF66E0C0EF76EC6
:1054D00027EC10F0020171D0D40EF66E0C0EF76EB0
:1054E00027EC10F0020169D0E60EF66E0C0EF76E96
:1054F00027EC10F0020161D0F60EF66E0C0EF76E7E
:1055000027EC10F0020159D0060EF66E0D0EF76E64
:1055100027EC10F0020151D0180EF66E0D0EF76E4A
:1055200027EC10F0020149D0260EF66E0D0EF76E34
:1055300027EC10F0020141D0360EF66E0D0EF76E1C
:1055400027EC10F0020139D0460EF66E0D0EF76E04
:1055500027EC10F0020131D0560EF66E0D0EF76EEC
:1055600027EC10F0020129D0640EF66E0D0EF76ED6
:1055700027EC10F0020121D0760EF66E0D0EF76EBC
:1055800027EC10F0020119D0820EF66E0D0EF76EA8
:1055900027EC10F0020111D0920EF66E0D0EF76E90
:1055A00027EC10F0020109D09E0EF66E0D0EF76E7C
:1055B00027EC10F0020101D00201010E09013E6F3B
:1055C000020E3F6F0001C6EC0FF00201F851120805
:1055D00009E1AE0EF66E0D0EF76E000127EC10F02D
:1055E00008D00201BC0EF66E0D0EF76E000127EC1E
:1055F00010F0F8C299F50201000129EF2BF0F2CF6B
:105600000DF0F29EE824F76AF736230FF66E560E79
:10561000F7220A00F550FA6E0800F5500DBEF28E22
:10562000F96E9854A854B854C854D854E854F8544F
:1056300008551855285538554855585568557855C2
:1056400088559855A8550201F953D8B47AD000016D
:1056500006D782BA14D0928880A811D0050E09010D
:10566000426F0001D9EC0CF00201F82BF85112083E
:1056700002E2010EF86F82AAFED716D000019288CE
:1056800080B813D082AA11D0050E0901426F000123
:10569000D9EC0CF00201F82D03D0120EF86F01D0F6
:1056A000F807928880A8FDD7000181BC42D0140E73
:1056B0000901426F0001D9EC0CF081BC3AD081BCE9
:1056C00007D00A0E0901426F0001D9EC0CF0F7D7A0
:1056D0000201F85112082AE1E96BF96B010E090188
:1056E000416F000136EC0DF0010E09013E6F3F6F76
:1056F0000001C6EC0FF0CC0EF66E0D0EF76E27EC27
:1057000010F0040E0801996FFA0E0901426F0001B2
:10571000D9EC0CF00801992FF7D7010E0901416F60
:10572000000136EC0DF00CD004D00201F96B000141
:1057300007D0010E0901426F0001D9EC0CF083D7AC
:1057400002010001C9EF56F00201F82BF8511208CE
:1057500002E2010EF86F010EF96F0001120081AC38
:10576000FED7010E0901416F000136EC0DF0010E6C
:1057700009013E6F3F6F0001C6EC0FF0DC0EF66EC4
:105780000D0EF76E27EC10F0F2CF9CF8F29EAA6A8D
:10579000A96AA69CA69EA680A85008019CBFF28E6E
:1057A000996F99C89AF89B69010E09013E6F020E24
:1057B0003F6F0001C6EC0FF00801995309E1EC0EB0
:1057C000F66E0D0EF76E000127EC10F008D0080100
:1057D000000EF66E0E0EF76E000127EC10F082BA86
:1057E00012D0928880A80FD0050E0901426F0001E7
:1057F000D9EC0CF0010E08019925010B996F82AAD2
:10580000FED716D00001928880B813D082AA11D09A
:10581000050E0901426F0001D9EC0CF00801995303
:1058200002E1010E01D0000E996F928880A8FDD789
:10583000000108019B51995D1EE0010E09013E6FB8
:10584000020E3F6F0001C6EC0FF00801995309E109
:10585000140EF66E0E0EF76E000127EC10F008D055
:105860000801280EF66E0E0EF76E000127EC10F000
:1058700099C89BF8080181BCAED0140E0901426F93
:105880000001D9EC0CF081BCA5D008019A51995DBA
:105890006CE0F250006EF29EAA6AA96A99C8A8FF4D
:1058A000A69CA69EA6840F01550EA76EAA0EA76EF3
:1058B000A682A6B2FED7A6940050F212010E0901EC
:1058C000416F000136EC0DF0010E09013E6F3F6F94
:1058D0000001C6EC0FF03C0EF66E0E0EF76E27ECD4
:1058E00010F0010E09013E6F020E3F6F0001C6EC81
:1058F0000FF0080199530BE1480EF66E0E0EF76E8D
:10590000000127EC10F099C835F40AD00801500EB8
:10591000F66E0E0EF76E000127EC10F099C835F404
:1059200081ACFED7010E09013E6F020E3F6F0001F0
:10593000C6EC0FF0580EF66E0E0EF76E27EC10F058
:1059400081BCFED7140E0901426F0001D9EC0CF0A6
:1059500081ACFED7320E0901426F0001D9EC0CF088
:1059600099C8EAF2F1DE35D0080181ACFED7010E0C
:105970000901416F000136EC0DF0010E09013E6F87
:105980003F6F0001C6EC0FF06A0EF66E0E0EF76E5A
:1059900027EC10F0010E09013E6F020E3F6F00016F
:1059A000C6EC0FF0740EF66E0E0EF76E27EC10F0CC
:1059B00081BCFED7140E0901426F0001D9EC0CF036
:1059C00081ACFED7320E0901426F0001D9EC0CF018
:1059D000BBDE08D00801010E0901426F0001D9ECBD
:1059E0000CF0FDD664EF57F081ACFED7F2CF9BF8F8
:1059F000F29EAA6A030EA96EA69CA69EA680A85037
:105A000008019BBFF28E996F995305E0992D01D043
:105A100002D0010E996F9A69010E0901416F0001D0
:105A200036EC0DF0010E09013E6F3F6F0001C6EC30
:105A30000FF0A00EF66E0E0EF76E27EC10F0010EB2
:105A400009013E6F020E3F6F0001C6EC0FF0080126
:105A5000992D09D0B00EF66E0E0EF76E000127ECF0
:105A600010F008D00801C20EF66E0E0EF76E00019F
:105A700027EC10F082BA14D0928880A811D0050EBD
:105A80000901426F0001D9EC0CF00801992D02D0F8
:105A9000000E01D0010E996F82AAFED716D0000128
:105AA000928880B813D082AA11D0050E0901426FE6
:105AB0000001D9EC0CF00801992D02D0000E01D0A4
:105AC000010E996F928880A8FDD7000108019A51B4
:105AD000995D1EE0010E09013E6F020E3F6F00014D
